{
  "contractName": "Donator",
  "abi": [
    {
      "inputs": [],
      "payable": false,
      "stateMutability": "nonpayable",
      "type": "constructor"
    },
    {
      "payable": true,
      "stateMutability": "payable",
      "type": "fallback"
    },
    {
      "constant": true,
      "inputs": [
        {
          "internalType": "uint256",
          "name": "",
          "type": "uint256"
        }
      ],
      "name": "donationKeys",
      "outputs": [
        {
          "internalType": "uint256",
          "name": "",
          "type": "uint256"
        }
      ],
      "payable": false,
      "stateMutability": "view",
      "type": "function"
    },
    {
      "constant": true,
      "inputs": [
        {
          "internalType": "uint256",
          "name": "",
          "type": "uint256"
        }
      ],
      "name": "donationRequests",
      "outputs": [
        {
          "internalType": "uint256",
          "name": "id",
          "type": "uint256"
        },
        {
          "internalType": "string",
          "name": "hash",
          "type": "string"
        },
        {
          "internalType": "string",
          "name": "description",
          "type": "string"
        },
        {
          "internalType": "uint256",
          "name": "unclaimedDonations",
          "type": "uint256"
        },
        {
          "internalType": "uint256",
          "name": "claimedDonations",
          "type": "uint256"
        },
        {
          "internalType": "address payable",
          "name": "receiverAddress",
          "type": "address"
        }
      ],
      "payable": false,
      "stateMutability": "view",
      "type": "function"
    },
    {
      "constant": true,
      "inputs": [],
      "name": "donationRequestsCount",
      "outputs": [
        {
          "internalType": "uint256",
          "name": "",
          "type": "uint256"
        }
      ],
      "payable": false,
      "stateMutability": "view",
      "type": "function"
    },
    {
      "constant": true,
      "inputs": [
        {
          "internalType": "uint256",
          "name": "",
          "type": "uint256"
        }
      ],
      "name": "donations",
      "outputs": [
        {
          "internalType": "uint256",
          "name": "id",
          "type": "uint256"
        },
        {
          "internalType": "string",
          "name": "description",
          "type": "string"
        },
        {
          "internalType": "uint256",
          "name": "expirationDate",
          "type": "uint256"
        },
        {
          "internalType": "uint256",
          "name": "amount",
          "type": "uint256"
        },
        {
          "internalType": "uint256",
          "name": "donationRequestId",
          "type": "uint256"
        },
        {
          "internalType": "address payable",
          "name": "donator",
          "type": "address"
        }
      ],
      "payable": false,
      "stateMutability": "view",
      "type": "function"
    },
    {
      "constant": true,
      "inputs": [],
      "name": "donationsCount",
      "outputs": [
        {
          "internalType": "uint256",
          "name": "",
          "type": "uint256"
        }
      ],
      "payable": false,
      "stateMutability": "view",
      "type": "function"
    },
    {
      "constant": true,
      "inputs": [],
      "name": "name",
      "outputs": [
        {
          "internalType": "string",
          "name": "",
          "type": "string"
        }
      ],
      "payable": false,
      "stateMutability": "view",
      "type": "function"
    },
    {
      "constant": false,
      "inputs": [
        {
          "internalType": "string",
          "name": "_hash",
          "type": "string"
        },
        {
          "internalType": "string",
          "name": "_description",
          "type": "string"
        }
      ],
      "name": "uploadDonationRequest",
      "outputs": [],
      "payable": false,
      "stateMutability": "nonpayable",
      "type": "function"
    },
    {
      "constant": false,
      "inputs": [
        {
          "internalType": "uint256",
          "name": "_donationRequestId",
          "type": "uint256"
        },
        {
          "internalType": "string",
          "name": "_description",
          "type": "string"
        },
        {
          "internalType": "uint256",
          "name": "_expDateInUnixTime",
          "type": "uint256"
        }
      ],
      "name": "donate",
      "outputs": [],
      "payable": true,
      "stateMutability": "payable",
      "type": "function"
    },
    {
      "constant": false,
      "inputs": [
        {
          "internalType": "uint256",
          "name": "_donationId",
          "type": "uint256"
        }
      ],
      "name": "receiveDonation",
      "outputs": [],
      "payable": true,
      "stateMutability": "payable",
      "type": "function"
    },
    {
      "constant": false,
      "inputs": [
        {
          "internalType": "uint256",
          "name": "_donationId",
          "type": "uint256"
        }
      ],
      "name": "refundDonation",
      "outputs": [],
      "payable": true,
      "stateMutability": "payable",
      "type": "function"
    },
    {
      "constant": false,
      "inputs": [
        {
          "internalType": "uint256",
          "name": "_indexOfKey",
          "type": "uint256"
        }
      ],
      "name": "removeDonationKeyByValue",
      "outputs": [],
      "payable": false,
      "stateMutability": "nonpayable",
      "type": "function"
    }
  ],
  "bytecode": "0x6080604052600060015560006003553480156200001b57600080fd5b506040518060400160405280600781526020017f446f6e61746f7200000000000000000000000000000000000000000000000000815250600090805190602001906200006992919062000070565b506200011f565b828054600181600116156101000203166002900490600052602060002090601f016020900481019282601f10620000b357805160ff1916838001178555620000e4565b82800160010185558215620000e4579182015b82811115620000e3578251825591602001919060010190620000c6565b5b509050620000f39190620000f7565b5090565b6200011c91905b8082111562000118576000816000905550600101620000fe565b5090565b90565b611a21806200012f6000396000f3fe60806040526004361061009c5760003560e01c8063709cacc211610064578063709cacc2146103df57806376d4a9671461040d57806377f771161461044857806383006de914610473578063d70c03bc146105d2578063f8626af8146106005761009c565b806306fdde031461009e5780631f5225951461012e5780634495cd0f1461015957806365b7b81414610228578063692f60be14610277575b005b3480156100aa57600080fd5b506100b3610703565b6040518080602001828103825283818151815260200191508051906020019080838360005b838110156100f35780820151818401526020810190506100d8565b50505050905090810190601f1680156101205780820380516001836020036101000a031916815260200191505b509250505060405180910390f35b34801561013a57600080fd5b506101436107a1565b6040518082815260200191505060405180910390f35b6102266004803603606081101561016f57600080fd5b81019080803590602001909291908035906020019064010000000081111561019657600080fd5b8201836020820111156101a857600080fd5b803590602001918460018302840111640100000000831117156101ca57600080fd5b91908080601f016020809104026020016040519081016040528093929190818152602001838380828437600081840152601f19601f820116905080830192505050505050509192919290803590602001909291905050506107a7565b005b34801561023457600080fd5b506102616004803603602081101561024b57600080fd5b8101908080359060200190929190505050610bde565b6040518082815260200191505060405180910390f35b34801561028357600080fd5b506102b06004803603602081101561029a57600080fd5b8101908080359060200190929190505050610bff565b6040518087815260200180602001806020018681526020018581526020018473ffffffffffffffffffffffffffffffffffffffff1673ffffffffffffffffffffffffffffffffffffffff168152602001838103835288818151815260200191508051906020019080838360005b8381101561033857808201518184015260208101905061031d565b50505050905090810190601f1680156103655780820380516001836020036101000a031916815260200191505b50838103825287818151815260200191508051906020019080838360005b8381101561039e578082015181840152602081019050610383565b50505050905090810190601f1680156103cb5780820380516001836020036101000a031916815260200191505b509850505050505050505060405180910390f35b61040b600480360360208110156103f557600080fd5b8101908080359060200190929190505050610d8b565b005b34801561041957600080fd5b506104466004803603602081101561043057600080fd5b8101908080359060200190929190505050610f93565b005b34801561045457600080fd5b5061045d611029565b6040518082815260200191505060405180910390f35b34801561047f57600080fd5b506105d06004803603604081101561049657600080fd5b81019080803590602001906401000000008111156104b357600080fd5b8201836020820111156104c557600080fd5b803590602001918460018302840111640100000000831117156104e757600080fd5b91908080601f016020809104026020016040519081016040528093929190818152602001838380828437600081840152601f19601f8201169050808301925050505050505091929192908035906020019064010000000081111561054a57600080fd5b82018360208201111561055c57600080fd5b8035906020019184600183028401116401000000008311171561057e57600080fd5b91908080601f016020809104026020016040519081016040528093929190818152602001838380828437600081840152601f19601f82011690508083019250505050505050919291929050505061102f565b005b6105fe600480360360208110156105e857600080fd5b8101908080359060200190929190505050611199565b005b34801561060c57600080fd5b506106396004803603602081101561062357600080fd5b8101908080359060200190929190505050611711565b60405180878152602001806020018681526020018581526020018481526020018373ffffffffffffffffffffffffffffffffffffffff1673ffffffffffffffffffffffffffffffffffffffff168152602001828103825287818151815260200191508051906020019080838360005b838110156106c35780820151818401526020810190506106a8565b50505050905090810190601f1680156106f05780820380516001836020036101000a031916815260200191505b5097505050505050505060405180910390f35b60008054600181600116156101000203166002900480601f0160208091040260200160405190810160405280929190818152602001828054600181600116156101000203166002900480156107995780601f1061076e57610100808354040283529160200191610799565b820191906000526020600020905b81548152906001019060200180831161077c57829003601f168201915b505050505081565b60035481565b6000831180156107b957506001548311155b6107c257600080fd5b6107ca611805565b600260008581526020019081526020016000206040518060c001604052908160008201548152602001600182018054600181600116156101000203166002900480601f01602080910402602001604051908101604052809291908181526020018280546001816001161561010002031660029004801561088b5780601f106108605761010080835404028352916020019161088b565b820191906000526020600020905b81548152906001019060200180831161086e57829003601f168201915b50505050508152602001600282018054600181600116156101000203166002900480601f01602080910402602001604051908101604052809291908181526020018280546001816001161561010002031660029004801561092d5780601f106109025761010080835404028352916020019161092d565b820191906000526020600020905b81548152906001019060200180831161091057829003601f168201915b5050505050815260200160038201548152602001600482015481526020016005820160009054906101000a900473ffffffffffffffffffffffffffffffffffffffff1673ffffffffffffffffffffffffffffffffffffffff1673ffffffffffffffffffffffffffffffffffffffff168152505090503073ffffffffffffffffffffffffffffffffffffffff166108fc349081150290604051600060405180830381858888f193505050501580156109e8573d6000803e3d6000fd5b50348160600181815101915081815250508060026000868152602001908152602001600020600082015181600001556020820151816001019080519060200190610a33929190611851565b506040820151816002019080519060200190610a50929190611851565b50606082015181600301556080820151816004015560a08201518160050160006101000a81548173ffffffffffffffffffffffffffffffffffffffff021916908373ffffffffffffffffffffffffffffffffffffffff160217905550905050600360008154809291906001019190505550600560035490806001815401808255809150509060018203906000526020600020016000909192909190915055506040518060c0016040528060035481526020018481526020018381526020013481526020018581526020013373ffffffffffffffffffffffffffffffffffffffff16815250600460006003548152602001908152602001600020600082015181600001556020820151816001019080519060200190610b6f929190611851565b5060408201518160020155606082015181600301556080820151816004015560a08201518160050160006101000a81548173ffffffffffffffffffffffffffffffffffffffff021916908373ffffffffffffffffffffffffffffffffffffffff16021790555090505050505050565b60058181548110610beb57fe5b906000526020600020016000915090505481565b6002602052806000526040600020600091509050806000015490806001018054600181600116156101000203166002900480601f016020809104026020016040519081016040528092919081815260200182805460018160011615610100020316600290048015610cb15780601f10610c8657610100808354040283529160200191610cb1565b820191906000526020600020905b815481529060010190602001808311610c9457829003601f168201915b505050505090806002018054600181600116156101000203166002900480601f016020809104026020016040519081016040528092919081815260200182805460018160011615610100020316600290048015610d4f5780601f10610d2457610100808354040283529160200191610d4f565b820191906000526020600020905b815481529060010190602001808311610d3257829003601f168201915b5050505050908060030154908060040154908060050160009054906101000a900473ffffffffffffffffffffffffffffffffffffffff16905086565b610d936118d1565b600460008381526020019081526020016000206040518060c001604052908160008201548152602001600182018054600181600116156101000203166002900480601f016020809104026020016040519081016040528092919081815260200182805460018160011615610100020316600290048015610e545780601f10610e2957610100808354040283529160200191610e54565b820191906000526020600020905b815481529060010190602001808311610e3757829003601f168201915b505050505081526020016002820154815260200160038201548152602001600482015481526020016005820160009054906101000a900473ffffffffffffffffffffffffffffffffffffffff1673ffffffffffffffffffffffffffffffffffffffff1673ffffffffffffffffffffffffffffffffffffffff168152505090508060a0015173ffffffffffffffffffffffffffffffffffffffff166108fc82606001519081150290604051600060405180830381858888f19350505050158015610f21573d6000803e3d6000fd5b5060046000838152602001908152602001600020600080820160009055600182016000610f4e919061191d565b6002820160009055600382016000905560048201600090556005820160006101000a81549073ffffffffffffffffffffffffffffffffffffffff021916905550505050565b60008190505b600160058054905003811015610fec5760056001820181548110610fb957fe5b906000526020600020015460058281548110610fd157fe5b90600052602060002001819055508080600101915050610f99565b5060056001600580549050038154811061100257fe5b906000526020600020016000905560058054809190600190036110259190611965565b5050565b60015481565b600082511161103d57600080fd5b600081511161104b57600080fd5b600073ffffffffffffffffffffffffffffffffffffffff163373ffffffffffffffffffffffffffffffffffffffff16141561108557600080fd5b6001600081548092919060010191905055506040518060c00160405280600154815260200183815260200182815260200160008152602001600081526020013373ffffffffffffffffffffffffffffffffffffffff16815250600260006001548152602001908152602001600020600082015181600001556020820151816001019080519060200190611119929190611851565b506040820151816002019080519060200190611136929190611851565b50606082015181600301556080820151816004015560a08201518160050160006101000a81548173ffffffffffffffffffffffffffffffffffffffff021916908373ffffffffffffffffffffffffffffffffffffffff1602179055509050505050565b6000811180156111ab57506003548111155b6111b457600080fd5b6111bc6118d1565b600460008381526020019081526020016000206040518060c001604052908160008201548152602001600182018054600181600116156101000203166002900480601f01602080910402602001604051908101604052809291908181526020018280546001816001161561010002031660029004801561127d5780601f106112525761010080835404028352916020019161127d565b820191906000526020600020905b81548152906001019060200180831161126057829003601f168201915b505050505081526020016002820154815260200160038201548152602001600482015481526020016005820160009054906101000a900473ffffffffffffffffffffffffffffffffffffffff1673ffffffffffffffffffffffffffffffffffffffff1673ffffffffffffffffffffffffffffffffffffffff16815250509050611304611805565b60026000836080015181526020019081526020016000206040518060c001604052908160008201548152602001600182018054600181600116156101000203166002900480601f0160208091040260200160405190810160405280929190818152602001828054600181600116156101000203166002900480156113c95780601f1061139e576101008083540402835291602001916113c9565b820191906000526020600020905b8154815290600101906020018083116113ac57829003601f168201915b50505050508152602001600282018054600181600116156101000203166002900480601f01602080910402602001604051908101604052809291908181526020018280546001816001161561010002031660029004801561146b5780601f106114405761010080835404028352916020019161146b565b820191906000526020600020905b81548152906001019060200180831161144e57829003601f168201915b5050505050815260200160038201548152602001600482015481526020016005820160009054906101000a900473ffffffffffffffffffffffffffffffffffffffff1673ffffffffffffffffffffffffffffffffffffffff1673ffffffffffffffffffffffffffffffffffffffff1681525050905060008160a0015190508073ffffffffffffffffffffffffffffffffffffffff163373ffffffffffffffffffffffffffffffffffffffff161461156d576040517f08c379a00000000000000000000000000000000000000000000000000000000081526004018080602001828103825260368152602001806119b76036913960400191505060405180910390fd5b8160a0015173ffffffffffffffffffffffffffffffffffffffff166108fc84606001519081150290604051600060405180830381858888f193505050501580156115bb573d6000803e3d6000fd5b5082606001518260800181815101915081815250508260600151826060018181510391508181525050816002600084600001518152602001908152602001600020600082015181600001556020820151816001019080519060200190611622929190611851565b50604082015181600201908051906020019061163f929190611851565b50606082015181600301556080820151816004015560a08201518160050160006101000a81548173ffffffffffffffffffffffffffffffffffffffff021916908373ffffffffffffffffffffffffffffffffffffffff160217905550905050600460008581526020019081526020016000206000808201600090556001820160006116ca919061191d565b6002820160009055600382016000905560048201600090556005820160006101000a81549073ffffffffffffffffffffffffffffffffffffffff0219169055505050505050565b6004602052806000526040600020600091509050806000015490806001018054600181600116156101000203166002900480601f0160208091040260200160405190810160405280929190818152602001828054600181600116156101000203166002900480156117c35780601f10611798576101008083540402835291602001916117c3565b820191906000526020600020905b8154815290600101906020018083116117a657829003601f168201915b5050505050908060020154908060030154908060040154908060050160009054906101000a900473ffffffffffffffffffffffffffffffffffffffff16905086565b6040518060c001604052806000815260200160608152602001606081526020016000815260200160008152602001600073ffffffffffffffffffffffffffffffffffffffff1681525090565b828054600181600116156101000203166002900490600052602060002090601f016020900481019282601f1061189257805160ff19168380011785556118c0565b828001600101855582156118c0579182015b828111156118bf5782518255916020019190600101906118a4565b5b5090506118cd9190611991565b5090565b6040518060c001604052806000815260200160608152602001600081526020016000815260200160008152602001600073ffffffffffffffffffffffffffffffffffffffff1681525090565b50805460018160011615610100020316600290046000825580601f106119435750611962565b601f0160209004906000526020600020908101906119619190611991565b5b50565b81548183558181111561198c5781836000526020600020918201910161198b9190611991565b5b505050565b6119b391905b808211156119af576000816000905550600101611997565b5090565b9056fe5468652075736572206d75737420626520746865207265636569766572206f662074686520446f6e6174696f6e20526571756573742ea265627a7a72315820f4f7fa93c9ab8f82c5c78c1c48e11e16ddf55ebd7edd428fdf0a69e10f21aaf064736f6c63430005100032",
  "source": "pragma solidity ^0.5.0;\r\n\r\ncontract Donator {\r\n    string public name;\r\n\r\n    uint256 public donationRequestsCount = 0;\r\n    mapping(uint256 => DonationRequest) public donationRequests;\r\n\r\n    uint256 public donationsCount = 0;\r\n    mapping(uint256 => Donation) public donations;\r\n\r\n    // The ids of all of the Donations in the 'donations' mapping, used\r\n    // to iterate over the mapping when issuing refunds.\r\n    uint256[] public donationKeys;\r\n\r\n    struct DonationRequest {\r\n        uint256 id;\r\n        string hash;\r\n        string description;\r\n        uint256 unclaimedDonations;\r\n        uint256 claimedDonations;\r\n        address payable receiverAddress;\r\n    }\r\n\r\n    struct Donation {\r\n        uint256 id;\r\n        string description;\r\n        uint256 expirationDate;\r\n        uint256 amount;\r\n        uint256 donationRequestId;\r\n        address payable donator;\r\n    }\r\n\r\n    constructor() public {\r\n        name = \"Donator\";\r\n    }\r\n\r\n    function() external payable {}\r\n\r\n    function uploadDonationRequest(\r\n        string memory _hash,\r\n        string memory _description\r\n    ) public {\r\n        require(bytes(_hash).length > 0);\r\n        require(bytes(_description).length > 0);\r\n        require(msg.sender != address(0));\r\n\r\n        donationRequestsCount++;\r\n\r\n        // Set a spot in the mapping to a new DonationRequest\r\n        donationRequests[donationRequestsCount] = DonationRequest(\r\n            donationRequestsCount,\r\n            _hash,\r\n            _description,\r\n            0,\r\n            0,\r\n            msg.sender\r\n        );\r\n    }\r\n\r\n    function donate(\r\n        uint256 _donationRequestId,\r\n        string memory _description,\r\n        uint256 _expDateInUnixTime\r\n    ) public payable {\r\n        require(\r\n            _donationRequestId > 0 &&\r\n                _donationRequestId <= donationRequestsCount\r\n        );\r\n\r\n        DonationRequest memory _donationRequest = donationRequests[\r\n            _donationRequestId\r\n        ];\r\n\r\n        // Pay the smart contract. Funds come from a donator.\r\n        address(this).transfer(msg.value);\r\n\r\n        // Update the field on the DonationRequest\r\n        _donationRequest.unclaimedDonations += msg.value;\r\n        donationRequests[_donationRequestId] = _donationRequest;\r\n\r\n        donationsCount++;\r\n\r\n        // Store the key to the mapping\r\n        donationKeys.push(donationsCount);\r\n\r\n        // Set a spot in the mapping to a new Donation\r\n        donations[donationsCount] = Donation(\r\n            donationsCount,\r\n            _description,\r\n            _expDateInUnixTime,\r\n            msg.value,\r\n            _donationRequestId,\r\n            msg.sender\r\n        );\r\n    }\r\n\r\n    function receiveDonation(uint256 _donationId) public payable {\r\n        require(_donationId > 0 && _donationId <= donationsCount);\r\n\r\n        Donation memory _donation = donations[_donationId];\r\n        DonationRequest memory _donationRequest = donationRequests[\r\n            _donation.donationRequestId\r\n        ];\r\n        address payable _receiverAddress = _donationRequest.receiverAddress;\r\n\r\n        // Ensure that the actor is the correct receiver\r\n        require(\r\n            msg.sender == _receiverAddress,\r\n            \"The user must be the receiver of the Donation Request.\"\r\n        );\r\n\r\n        // Pay the receiver. Funds come from the smart contract.\r\n        address(_donationRequest.receiverAddress).transfer(_donation.amount);\r\n\r\n        // Update the fields on the DonationRequest\r\n        _donationRequest.claimedDonations += _donation.amount;\r\n        _donationRequest.unclaimedDonations -= _donation.amount;\r\n        donationRequests[_donationRequest.id] = _donationRequest;\r\n\r\n        // Make the Donation inactive\r\n        delete (donations[_donationId]);\r\n    }\r\n\r\n    function refundDonation(uint256 _donationId) public payable {\r\n        Donation memory _donation = donations[_donationId];\r\n\r\n        // Pay back the donator. Funds come from the smart contract.\r\n        address(_donation.donator).transfer(_donation.amount);\r\n\r\n        delete (donations[_donationId]);\r\n    }\r\n\r\n    function removeDonationKeyByValue(uint256 _indexOfKey) public {\r\n        for (uint256 i = _indexOfKey; i < donationKeys.length - 1; i++) {\r\n            donationKeys[i] = donationKeys[i + 1];\r\n        }\r\n\r\n        delete donationKeys[donationKeys.length - 1];\r\n        donationKeys.length--;\r\n    }\r\n}\r\n",
  "sourcePath": "C:/Users/rossb/Documents/Donator/Donator/src/contracts/Donator_v1.sol",
  "compiler": {
    "name": "solc",
    "version": "0.5.16+commit.9c3226ce.Emscripten.clang"
  },
  "schemaVersion": "3.4.1",
  "updatedAt": "2021-07-23T21:26:17.296Z",
  "networkType": "ethereum",
  "devdoc": {
    "methods": {}
  },
  "userdoc": {
    "methods": {}
  }
}