{
  "contractName": "Donator",
  "abi": [
    {
      "inputs": [],
      "payable": false,
      "stateMutability": "nonpayable",
      "type": "constructor"
    },
    {
      "payable": true,
      "stateMutability": "payable",
      "type": "fallback"
    },
    {
      "constant": true,
      "inputs": [
        {
          "internalType": "uint256",
          "name": "",
          "type": "uint256"
        }
      ],
      "name": "donations",
      "outputs": [
        {
          "internalType": "uint256",
          "name": "id",
          "type": "uint256"
        },
        {
          "internalType": "string",
          "name": "description",
          "type": "string"
        },
        {
          "internalType": "uint256",
          "name": "expirationDate",
          "type": "uint256"
        },
        {
          "internalType": "uint256",
          "name": "amount",
          "type": "uint256"
        },
        {
          "internalType": "uint256",
          "name": "requestId",
          "type": "uint256"
        },
        {
          "internalType": "address payable",
          "name": "donator",
          "type": "address"
        }
      ],
      "payable": false,
      "stateMutability": "view",
      "type": "function"
    },
    {
      "constant": true,
      "inputs": [],
      "name": "donationsCount",
      "outputs": [
        {
          "internalType": "uint256",
          "name": "",
          "type": "uint256"
        }
      ],
      "payable": false,
      "stateMutability": "view",
      "type": "function"
    },
    {
      "constant": true,
      "inputs": [],
      "name": "name",
      "outputs": [
        {
          "internalType": "string",
          "name": "",
          "type": "string"
        }
      ],
      "payable": false,
      "stateMutability": "view",
      "type": "function"
    },
    {
      "constant": true,
      "inputs": [
        {
          "internalType": "uint256",
          "name": "",
          "type": "uint256"
        }
      ],
      "name": "requests",
      "outputs": [
        {
          "internalType": "uint256",
          "name": "id",
          "type": "uint256"
        },
        {
          "internalType": "string",
          "name": "hash",
          "type": "string"
        },
        {
          "internalType": "string",
          "name": "title",
          "type": "string"
        },
        {
          "internalType": "string",
          "name": "description",
          "type": "string"
        },
        {
          "internalType": "uint256",
          "name": "numDonations",
          "type": "uint256"
        },
        {
          "internalType": "uint256",
          "name": "outstandingDonations",
          "type": "uint256"
        },
        {
          "internalType": "uint256",
          "name": "acceptedDonations",
          "type": "uint256"
        },
        {
          "internalType": "address payable",
          "name": "requestor",
          "type": "address"
        }
      ],
      "payable": false,
      "stateMutability": "view",
      "type": "function"
    },
    {
      "constant": true,
      "inputs": [],
      "name": "requestsCount",
      "outputs": [
        {
          "internalType": "uint256",
          "name": "",
          "type": "uint256"
        }
      ],
      "payable": false,
      "stateMutability": "view",
      "type": "function"
    },
    {
      "constant": false,
      "inputs": [
        {
          "internalType": "string",
          "name": "_hash",
          "type": "string"
        },
        {
          "internalType": "string",
          "name": "_title",
          "type": "string"
        },
        {
          "internalType": "string",
          "name": "_description",
          "type": "string"
        }
      ],
      "name": "uploadRequest",
      "outputs": [],
      "payable": false,
      "stateMutability": "nonpayable",
      "type": "function"
    },
    {
      "constant": false,
      "inputs": [
        {
          "internalType": "uint256",
          "name": "_requestId",
          "type": "uint256"
        },
        {
          "internalType": "string",
          "name": "_description",
          "type": "string"
        },
        {
          "internalType": "uint256",
          "name": "_expDateInUnixTime",
          "type": "uint256"
        }
      ],
      "name": "donate",
      "outputs": [],
      "payable": true,
      "stateMutability": "payable",
      "type": "function"
    },
    {
      "constant": false,
      "inputs": [
        {
          "internalType": "uint256",
          "name": "_donationId",
          "type": "uint256"
        }
      ],
      "name": "receiveDonation",
      "outputs": [],
      "payable": true,
      "stateMutability": "payable",
      "type": "function"
    },
    {
      "constant": false,
      "inputs": [
        {
          "internalType": "uint256",
          "name": "_donationId",
          "type": "uint256"
        }
      ],
      "name": "refundDonation",
      "outputs": [],
      "payable": true,
      "stateMutability": "payable",
      "type": "function"
    }
  ],
  "bytecode": "0x6080604052600060015560006003553480156200001b57600080fd5b506040518060400160405280600781526020017f446f6e61746f7200000000000000000000000000000000000000000000000000815250600090805190602001906200006992919062000070565b506200011f565b828054600181600116156101000203166002900490600052602060002090601f016020900481019282601f10620000b357805160ff1916838001178555620000e4565b82800160010185558215620000e4579182015b82811115620000e3578251825591602001919060010190620000c6565b5b509050620000f39190620000f7565b5090565b6200011c91905b8082111562000118576000816000905550600101620000fe565b5090565b90565b611fab806200012f6000396000f3fe6080604052600436106100865760003560e01c806381d12c581161005957806381d12c5814610240578063d70c03bc1461041b578063d83a0f9714610449578063f8626af81461063f578063fbfa4b7f1461074257610086565b806306fdde03146100885780631f522595146101185780634495cd0f14610143578063709cacc214610212575b005b34801561009457600080fd5b5061009d61076d565b6040518080602001828103825283818151815260200191508051906020019080838360005b838110156100dd5780820151818401526020810190506100c2565b50505050905090810190601f16801561010a5780820380516001836020036101000a031916815260200191505b509250505060405180910390f35b34801561012457600080fd5b5061012d61080b565b6040518082815260200191505060405180910390f35b6102106004803603606081101561015957600080fd5b81019080803590602001909291908035906020019064010000000081111561018057600080fd5b82018360208201111561019257600080fd5b803590602001918460018302840111640100000000831117156101b457600080fd5b91908080601f016020809104026020016040519081016040528093929190818152602001838380828437600081840152601f19601f82011690508083019250505050505050919291929080359060200190929190505050610811565b005b61023e6004803603602081101561022857600080fd5b8101908080359060200190929190505050610cff565b005b34801561024c57600080fd5b506102796004803603602081101561026357600080fd5b810190808035906020019092919050505061129f565b604051808981526020018060200180602001806020018881526020018781526020018681526020018573ffffffffffffffffffffffffffffffffffffffff1673ffffffffffffffffffffffffffffffffffffffff16815260200184810384528b818151815260200191508051906020019080838360005b8381101561030b5780820151818401526020810190506102f0565b50505050905090810190601f1680156103385780820380516001836020036101000a031916815260200191505b5084810383528a818151815260200191508051906020019080838360005b83811015610371578082015181840152602081019050610356565b50505050905090810190601f16801561039e5780820380516001836020036101000a031916815260200191505b50848103825289818151815260200191508051906020019080838360005b838110156103d75780820151818401526020810190506103bc565b50505050905090810190601f1680156104045780820380516001836020036101000a031916815260200191505b509b50505050505050505050505060405180910390f35b6104476004803603602081101561043157600080fd5b81019080803590602001909291905050506114cf565b005b34801561045557600080fd5b5061063d6004803603606081101561046c57600080fd5b810190808035906020019064010000000081111561048957600080fd5b82018360208201111561049b57600080fd5b803590602001918460018302840111640100000000831117156104bd57600080fd5b91908080601f016020809104026020016040519081016040528093929190818152602001838380828437600081840152601f19601f8201169050808301925050505050505091929192908035906020019064010000000081111561052057600080fd5b82018360208201111561053257600080fd5b8035906020019184600183028401116401000000008311171561055457600080fd5b91908080601f016020809104026020016040519081016040528093929190818152602001838380828437600081840152601f19601f820116905080830192505050505050509192919290803590602001906401000000008111156105b757600080fd5b8201836020820111156105c957600080fd5b803590602001918460018302840111640100000000831117156105eb57600080fd5b91908080601f016020809104026020016040519081016040528093929190818152602001838380828437600081840152601f19601f820116905080830192505050505050509192919290505050611b1b565b005b34801561064b57600080fd5b506106786004803603602081101561066257600080fd5b8101908080359060200190929190505050611cbb565b60405180878152602001806020018681526020018581526020018481526020018373ffffffffffffffffffffffffffffffffffffffff1673ffffffffffffffffffffffffffffffffffffffff168152602001828103825287818151815260200191508051906020019080838360005b838110156107025780820151818401526020810190506106e7565b50505050905090810190601f16801561072f5780820380516001836020036101000a031916815260200191505b5097505050505050505060405180910390f35b34801561074e57600080fd5b50610757611daf565b6040518082815260200191505060405180910390f35b60008054600181600116156101000203166002900480601f0160208091040260200160405190810160405280929190818152602001828054600181600116156101000203166002900480156108035780601f106107d857610100808354040283529160200191610803565b820191906000526020600020905b8154815290600101906020018083116107e657829003601f168201915b505050505081565b60035481565b60008311801561082357506001548311155b61082c57600080fd5b610834611db5565b600260008581526020019081526020016000206040518061010001604052908160008201548152602001600182018054600181600116156101000203166002900480601f0160208091040260200160405190810160405280929190818152602001828054600181600116156101000203166002900480156108f65780601f106108cb576101008083540402835291602001916108f6565b820191906000526020600020905b8154815290600101906020018083116108d957829003601f168201915b50505050508152602001600282018054600181600116156101000203166002900480601f0160208091040260200160405190810160405280929190818152602001828054600181600116156101000203166002900480156109985780601f1061096d57610100808354040283529160200191610998565b820191906000526020600020905b81548152906001019060200180831161097b57829003601f168201915b50505050508152602001600382018054600181600116156101000203166002900480601f016020809104026020016040519081016040528092919081815260200182805460018160011615610100020316600290048015610a3a5780601f10610a0f57610100808354040283529160200191610a3a565b820191906000526020600020905b815481529060010190602001808311610a1d57829003601f168201915b505050505081526020016004820154815260200160058201548152602001600682015481526020016007820160009054906101000a900473ffffffffffffffffffffffffffffffffffffffff1673ffffffffffffffffffffffffffffffffffffffff1673ffffffffffffffffffffffffffffffffffffffff168152505090503073ffffffffffffffffffffffffffffffffffffffff166108fc349081150290604051600060405180830381858888f19350505050158015610aff573d6000803e3d6000fd5b50348160a001818151019150818152505060018160800181815101915081815250508060026000868152602001908152602001600020600082015181600001556020820151816001019080519060200190610b5b929190611e10565b506040820151816002019080519060200190610b78929190611e10565b506060820151816003019080519060200190610b95929190611e10565b506080820151816004015560a0820151816005015560c0820151816006015560e08201518160070160006101000a81548173ffffffffffffffffffffffffffffffffffffffff021916908373ffffffffffffffffffffffffffffffffffffffff1602179055509050506003600081548092919060010191905055506040518060c0016040528060035481526020018481526020018381526020013481526020018581526020013373ffffffffffffffffffffffffffffffffffffffff16815250600460006003548152602001908152602001600020600082015181600001556020820151816001019080519060200190610c90929190611e10565b5060408201518160020155606082015181600301556080820151816004015560a08201518160050160006101000a81548173ffffffffffffffffffffffffffffffffffffffff021916908373ffffffffffffffffffffffffffffffffffffffff16021790555090505050505050565b610d07611e90565b600460008381526020019081526020016000206040518060c001604052908160008201548152602001600182018054600181600116156101000203166002900480601f016020809104026020016040519081016040528092919081815260200182805460018160011615610100020316600290048015610dc85780601f10610d9d57610100808354040283529160200191610dc8565b820191906000526020600020905b815481529060010190602001808311610dab57829003601f168201915b505050505081526020016002820154815260200160038201548152602001600482015481526020016005820160009054906101000a900473ffffffffffffffffffffffffffffffffffffffff1673ffffffffffffffffffffffffffffffffffffffff1673ffffffffffffffffffffffffffffffffffffffff16815250509050610e4f611db5565b60026000836080015181526020019081526020016000206040518061010001604052908160008201548152602001600182018054600181600116156101000203166002900480601f016020809104026020016040519081016040528092919081815260200182805460018160011615610100020316600290048015610f155780601f10610eea57610100808354040283529160200191610f15565b820191906000526020600020905b815481529060010190602001808311610ef857829003601f168201915b50505050508152602001600282018054600181600116156101000203166002900480601f016020809104026020016040519081016040528092919081815260200182805460018160011615610100020316600290048015610fb75780601f10610f8c57610100808354040283529160200191610fb7565b820191906000526020600020905b815481529060010190602001808311610f9a57829003601f168201915b50505050508152602001600382018054600181600116156101000203166002900480601f0160208091040260200160405190810160405280929190818152602001828054600181600116156101000203166002900480156110595780601f1061102e57610100808354040283529160200191611059565b820191906000526020600020905b81548152906001019060200180831161103c57829003601f168201915b505050505081526020016004820154815260200160058201548152602001600682015481526020016007820160009054906101000a900473ffffffffffffffffffffffffffffffffffffffff1673ffffffffffffffffffffffffffffffffffffffff1673ffffffffffffffffffffffffffffffffffffffff168152505090508160a0015173ffffffffffffffffffffffffffffffffffffffff166108fc83606001519081150290604051600060405180830381858888f19350505050158015611126573d6000803e3d6000fd5b5081606001518160a0018181510391508181525050600181608001818151039150818152505080600260008360000151815260200190815260200160002060008201518160000155602082015181600101908051906020019061118a929190611e10565b5060408201518160020190805190602001906111a7929190611e10565b5060608201518160030190805190602001906111c4929190611e10565b506080820151816004015560a0820151816005015560c0820151816006015560e08201518160070160006101000a81548173ffffffffffffffffffffffffffffffffffffffff021916908373ffffffffffffffffffffffffffffffffffffffff160217905550905050600460008481526020019081526020016000206000808201600090556001820160006112599190611edc565b6002820160009055600382016000905560048201600090556005820160006101000a81549073ffffffffffffffffffffffffffffffffffffffff02191690555050505050565b6002602052806000526040600020600091509050806000015490806001018054600181600116156101000203166002900480601f0160208091040260200160405190810160405280929190818152602001828054600181600116156101000203166002900480156113515780601f1061132657610100808354040283529160200191611351565b820191906000526020600020905b81548152906001019060200180831161133457829003601f168201915b505050505090806002018054600181600116156101000203166002900480601f0160208091040260200160405190810160405280929190818152602001828054600181600116156101000203166002900480156113ef5780601f106113c4576101008083540402835291602001916113ef565b820191906000526020600020905b8154815290600101906020018083116113d257829003601f168201915b505050505090806003018054600181600116156101000203166002900480601f01602080910402602001604051908101604052809291908181526020018280546001816001161561010002031660029004801561148d5780601f106114625761010080835404028352916020019161148d565b820191906000526020600020905b81548152906001019060200180831161147057829003601f168201915b5050505050908060040154908060050154908060060154908060070160009054906101000a900473ffffffffffffffffffffffffffffffffffffffff16905088565b6000811180156114e157506003548111155b6114ea57600080fd5b6114f2611e90565b600460008381526020019081526020016000206040518060c001604052908160008201548152602001600182018054600181600116156101000203166002900480601f0160208091040260200160405190810160405280929190818152602001828054600181600116156101000203166002900480156115b35780601f10611588576101008083540402835291602001916115b3565b820191906000526020600020905b81548152906001019060200180831161159657829003601f168201915b505050505081526020016002820154815260200160038201548152602001600482015481526020016005820160009054906101000a900473ffffffffffffffffffffffffffffffffffffffff1673ffffffffffffffffffffffffffffffffffffffff1673ffffffffffffffffffffffffffffffffffffffff1681525050905061163a611db5565b60026000836080015181526020019081526020016000206040518061010001604052908160008201548152602001600182018054600181600116156101000203166002900480601f0160208091040260200160405190810160405280929190818152602001828054600181600116156101000203166002900480156117005780601f106116d557610100808354040283529160200191611700565b820191906000526020600020905b8154815290600101906020018083116116e357829003601f168201915b50505050508152602001600282018054600181600116156101000203166002900480601f0160208091040260200160405190810160405280929190818152602001828054600181600116156101000203166002900480156117a25780601f10611777576101008083540402835291602001916117a2565b820191906000526020600020905b81548152906001019060200180831161178557829003601f168201915b50505050508152602001600382018054600181600116156101000203166002900480601f0160208091040260200160405190810160405280929190818152602001828054600181600116156101000203166002900480156118445780601f1061181957610100808354040283529160200191611844565b820191906000526020600020905b81548152906001019060200180831161182757829003601f168201915b505050505081526020016004820154815260200160058201548152602001600682015481526020016007820160009054906101000a900473ffffffffffffffffffffffffffffffffffffffff1673ffffffffffffffffffffffffffffffffffffffff1673ffffffffffffffffffffffffffffffffffffffff1681525050905060008160e0015190508073ffffffffffffffffffffffffffffffffffffffff163373ffffffffffffffffffffffffffffffffffffffff1614611950576040517f08c379a000000000000000000000000000000000000000000000000000000000815260040180806020018281038252602d815260200180611f4a602d913960400191505060405180910390fd5b8160e0015173ffffffffffffffffffffffffffffffffffffffff166108fc84606001519081150290604051600060405180830381858888f1935050505015801561199e573d6000803e3d6000fd5b5082606001518260c001818151019150818152505082606001518260a0018181510391508181525050816002600084600001518152602001908152602001600020600082015181600001556020820151816001019080519060200190611a05929190611e10565b506040820151816002019080519060200190611a22929190611e10565b506060820151816003019080519060200190611a3f929190611e10565b506080820151816004015560a0820151816005015560c0820151816006015560e08201518160070160006101000a81548173ffffffffffffffffffffffffffffffffffffffff021916908373ffffffffffffffffffffffffffffffffffffffff16021790555090505060046000858152602001908152602001600020600080820160009055600182016000611ad49190611edc565b6002820160009055600382016000905560048201600090556005820160006101000a81549073ffffffffffffffffffffffffffffffffffffffff0219169055505050505050565b6000835111611b2957600080fd5b6000815111611b3757600080fd5b600073ffffffffffffffffffffffffffffffffffffffff163373ffffffffffffffffffffffffffffffffffffffff161415611b7157600080fd5b60016000815480929190600101919050555060405180610100016040528060015481526020018481526020018381526020018281526020016000815260200160008152602001600081526020013373ffffffffffffffffffffffffffffffffffffffff16815250600260006001548152602001908152602001600020600082015181600001556020820151816001019080519060200190611c13929190611e10565b506040820151816002019080519060200190611c30929190611e10565b506060820151816003019080519060200190611c4d929190611e10565b506080820151816004015560a0820151816005015560c0820151816006015560e08201518160070160006101000a81548173ffffffffffffffffffffffffffffffffffffffff021916908373ffffffffffffffffffffffffffffffffffffffff160217905550905050505050565b6004602052806000526040600020600091509050806000015490806001018054600181600116156101000203166002900480601f016020809104026020016040519081016040528092919081815260200182805460018160011615610100020316600290048015611d6d5780601f10611d4257610100808354040283529160200191611d6d565b820191906000526020600020905b815481529060010190602001808311611d5057829003601f168201915b5050505050908060020154908060030154908060040154908060050160009054906101000a900473ffffffffffffffffffffffffffffffffffffffff16905086565b60015481565b60405180610100016040528060008152602001606081526020016060815260200160608152602001600081526020016000815260200160008152602001600073ffffffffffffffffffffffffffffffffffffffff1681525090565b828054600181600116156101000203166002900490600052602060002090601f016020900481019282601f10611e5157805160ff1916838001178555611e7f565b82800160010185558215611e7f579182015b82811115611e7e578251825591602001919060010190611e63565b5b509050611e8c9190611f24565b5090565b6040518060c001604052806000815260200160608152602001600081526020016000815260200160008152602001600073ffffffffffffffffffffffffffffffffffffffff1681525090565b50805460018160011615610100020316600290046000825580601f10611f025750611f21565b601f016020900490600052602060002090810190611f209190611f24565b5b50565b611f4691905b80821115611f42576000816000905550600101611f2a565b5090565b9056fe5468652075736572206d75737420626520746865207265636569766572206f662074686520526571756573742ea265627a7a723158200a3c7b42507013c2eeea5805ab33175a19860ea900fef4ead5b787a13be4a6af64736f6c63430005100032",
  "source": "pragma solidity ^0.5.0;\r\n\r\ncontract Donator {\r\n    string public name;\r\n\r\n    uint256 public requestsCount = 0;\r\n    mapping(uint256 => Request) public requests;\r\n\r\n    uint256 public donationsCount = 0;\r\n    mapping(uint256 => Donation) public donations;\r\n\r\n    struct Request {\r\n        uint256 id;\r\n        string hash;\r\n        string title;\r\n        string description;\r\n        uint256 numDonations;\r\n        uint256 outstandingDonations;\r\n        uint256 acceptedDonations;\r\n        address payable requestor;\r\n    }\r\n\r\n    struct Donation {\r\n        uint256 id;\r\n        string description;\r\n        uint256 expirationDate;\r\n        uint256 amount;\r\n        uint256 requestId;\r\n        address payable donator;\r\n    }\r\n\r\n    constructor() public {\r\n        name = \"Donator\";\r\n    }\r\n\r\n    function() external payable {}\r\n\r\n    function uploadRequest(\r\n        string memory _hash,\r\n        string memory _title,\r\n        string memory _description\r\n    ) public {\r\n        require(bytes(_hash).length > 0);\r\n        require(bytes(_description).length > 0);\r\n        require(msg.sender != address(0));\r\n\r\n        requestsCount++;\r\n\r\n        // Set a spot in the mapping to a new Request\r\n        requests[requestsCount] = Request(\r\n            requestsCount,\r\n            _hash,\r\n            _title,\r\n            _description,\r\n            0,\r\n            0,\r\n            0,\r\n            msg.sender\r\n        );\r\n    }\r\n\r\n    function donate(\r\n        uint256 _requestId,\r\n        string memory _description,\r\n        uint256 _expDateInUnixTime\r\n    ) public payable {\r\n        require(\r\n            _requestId > 0 &&\r\n            _requestId <= requestsCount\r\n        );\r\n\r\n        Request memory _request = requests[\r\n            _requestId\r\n        ];\r\n\r\n        // Pay the smart contract. Funds come from a donator.\r\n        address(this).transfer(msg.value);\r\n\r\n        // Update the field on the Request\r\n        _request.outstandingDonations += msg.value;\r\n        _request.numDonations += 1;\r\n        requests[_requestId] = _request;\r\n\r\n        donationsCount++;\r\n\r\n        // Set a spot in the mapping to a new Donation\r\n        donations[donationsCount] = Donation(\r\n            donationsCount,\r\n            _description,\r\n            _expDateInUnixTime,\r\n            msg.value,\r\n            _requestId,\r\n            msg.sender\r\n        );\r\n    }\r\n\r\n    function receiveDonation(uint256 _donationId) public payable {\r\n        require(_donationId > 0 && _donationId <= donationsCount);\r\n\r\n        Donation memory _donation = donations[_donationId];\r\n        Request memory _request = requests[\r\n            _donation.requestId\r\n        ];\r\n        address payable _requestor = _request.requestor;\r\n\r\n        // Ensure that the actor is the correct receiver\r\n        require(\r\n            msg.sender == _requestor,\r\n            \"The user must be the receiver of the Request.\"\r\n        );\r\n\r\n        // Pay the receiver. Funds come from the smart contract.\r\n        address(_request.requestor).transfer(_donation.amount);\r\n\r\n        // Update the fields on the Request\r\n        _request.acceptedDonations += _donation.amount;\r\n        _request.outstandingDonations -= _donation.amount;\r\n        requests[_request.id] = _request;\r\n\r\n        delete (donations[_donationId]);\r\n    }\r\n\r\n    function refundDonation(uint256 _donationId) public payable {\r\n        Donation memory _donation = donations[_donationId];\r\n                Request memory _request = requests[\r\n            _donation.requestId\r\n        ];\r\n\r\n        // Pay back the donator. Funds come from the smart contract.\r\n        address(_donation.donator).transfer(_donation.amount);\r\n        \r\n        // Update the fields on the Request\r\n        _request.outstandingDonations -= _donation.amount;\r\n        _request.numDonations -= 1;\r\n        requests[_request.id] = _request;\r\n\r\n        delete (donations[_donationId]);\r\n    }\r\n}\r\n",
  "sourcePath": "C:/Users/rossb/Documents/Donator/Donator/src/contracts/Donator_v1.sol",
  "compiler": {
    "name": "solc",
    "version": "0.5.16+commit.9c3226ce.Emscripten.clang"
  },
  "schemaVersion": "3.4.1",
  "updatedAt": "2021-07-27T20:36:33.348Z",
  "networkType": "ethereum",
  "devdoc": {
    "methods": {}
  },
  "userdoc": {
    "methods": {}
  }
}