{
  "contractName": "Donator",
  "abi": [
    {
      "inputs": [],
      "payable": false,
      "stateMutability": "nonpayable",
      "type": "constructor"
    },
    {
      "payable": true,
      "stateMutability": "payable",
      "type": "fallback"
    },
    {
      "constant": true,
      "inputs": [],
      "name": "achievementsCount",
      "outputs": [
        {
          "internalType": "uint256",
          "name": "",
          "type": "uint256"
        }
      ],
      "payable": false,
      "stateMutability": "view",
      "type": "function"
    },
    {
      "constant": true,
      "inputs": [
        {
          "internalType": "uint256",
          "name": "",
          "type": "uint256"
        }
      ],
      "name": "donations",
      "outputs": [
        {
          "internalType": "uint256",
          "name": "id",
          "type": "uint256"
        },
        {
          "internalType": "string",
          "name": "description",
          "type": "string"
        },
        {
          "internalType": "uint256",
          "name": "amount",
          "type": "uint256"
        },
        {
          "internalType": "uint256",
          "name": "requestId",
          "type": "uint256"
        },
        {
          "internalType": "address payable",
          "name": "donator",
          "type": "address"
        }
      ],
      "payable": false,
      "stateMutability": "view",
      "type": "function"
    },
    {
      "constant": true,
      "inputs": [],
      "name": "donationsCount",
      "outputs": [
        {
          "internalType": "uint256",
          "name": "",
          "type": "uint256"
        }
      ],
      "payable": false,
      "stateMutability": "view",
      "type": "function"
    },
    {
      "constant": true,
      "inputs": [],
      "name": "idsOfAchievementsCount",
      "outputs": [
        {
          "internalType": "uint256",
          "name": "",
          "type": "uint256"
        }
      ],
      "payable": false,
      "stateMutability": "view",
      "type": "function"
    },
    {
      "constant": true,
      "inputs": [],
      "name": "idsOfDonationsCount",
      "outputs": [
        {
          "internalType": "uint256",
          "name": "",
          "type": "uint256"
        }
      ],
      "payable": false,
      "stateMutability": "view",
      "type": "function"
    },
    {
      "constant": true,
      "inputs": [],
      "name": "idsOfRequestsCount",
      "outputs": [
        {
          "internalType": "uint256",
          "name": "",
          "type": "uint256"
        }
      ],
      "payable": false,
      "stateMutability": "view",
      "type": "function"
    },
    {
      "constant": true,
      "inputs": [],
      "name": "maxEntries",
      "outputs": [
        {
          "internalType": "int256",
          "name": "",
          "type": "int256"
        }
      ],
      "payable": false,
      "stateMutability": "view",
      "type": "function"
    },
    {
      "constant": true,
      "inputs": [
        {
          "internalType": "uint256",
          "name": "",
          "type": "uint256"
        }
      ],
      "name": "requests",
      "outputs": [
        {
          "internalType": "uint256",
          "name": "id",
          "type": "uint256"
        },
        {
          "internalType": "string",
          "name": "hash",
          "type": "string"
        },
        {
          "internalType": "string",
          "name": "title",
          "type": "string"
        },
        {
          "internalType": "string",
          "name": "description",
          "type": "string"
        },
        {
          "internalType": "uint256",
          "name": "numDonations",
          "type": "uint256"
        },
        {
          "internalType": "uint256",
          "name": "totalDonationsAmount",
          "type": "uint256"
        },
        {
          "internalType": "uint256",
          "name": "outstandingDonations",
          "type": "uint256"
        },
        {
          "internalType": "uint256",
          "name": "acceptedDonations",
          "type": "uint256"
        },
        {
          "internalType": "address payable",
          "name": "requester",
          "type": "address"
        }
      ],
      "payable": false,
      "stateMutability": "view",
      "type": "function"
    },
    {
      "constant": true,
      "inputs": [],
      "name": "requestsCount",
      "outputs": [
        {
          "internalType": "uint256",
          "name": "",
          "type": "uint256"
        }
      ],
      "payable": false,
      "stateMutability": "view",
      "type": "function"
    },
    {
      "constant": false,
      "inputs": [
        {
          "internalType": "string",
          "name": "_hash",
          "type": "string"
        },
        {
          "internalType": "string",
          "name": "_title",
          "type": "string"
        },
        {
          "internalType": "string",
          "name": "_description",
          "type": "string"
        }
      ],
      "name": "uploadRequest",
      "outputs": [],
      "payable": false,
      "stateMutability": "nonpayable",
      "type": "function"
    },
    {
      "constant": false,
      "inputs": [
        {
          "internalType": "uint256",
          "name": "_requestId",
          "type": "uint256"
        },
        {
          "internalType": "string",
          "name": "_hash",
          "type": "string"
        },
        {
          "internalType": "string",
          "name": "_title",
          "type": "string"
        },
        {
          "internalType": "string",
          "name": "_description",
          "type": "string"
        }
      ],
      "name": "uploadAchievement",
      "outputs": [],
      "payable": true,
      "stateMutability": "payable",
      "type": "function"
    },
    {
      "constant": false,
      "inputs": [
        {
          "internalType": "uint256",
          "name": "_requestId",
          "type": "uint256"
        },
        {
          "internalType": "string",
          "name": "_description",
          "type": "string"
        }
      ],
      "name": "donate",
      "outputs": [],
      "payable": true,
      "stateMutability": "payable",
      "type": "function"
    },
    {
      "constant": false,
      "inputs": [
        {
          "internalType": "uint256",
          "name": "_donationId",
          "type": "uint256"
        }
      ],
      "name": "receiveDonation",
      "outputs": [],
      "payable": true,
      "stateMutability": "payable",
      "type": "function"
    },
    {
      "constant": false,
      "inputs": [
        {
          "internalType": "uint256",
          "name": "_donationId",
          "type": "uint256"
        }
      ],
      "name": "refundDonation",
      "outputs": [],
      "payable": true,
      "stateMutability": "payable",
      "type": "function"
    }
  ],
  "bytecode": "0x60806040526000805560006002556000620186a3556000620186a555600062030d4655600062030d485534801561003557600080fd5b506128b7806100456000396000f3fe6080604052600436106100dd5760003560e01c8063d70c03bc1161007f578063f23f3ba511610059578063f23f3ba514610877578063f30dadee146108a2578063f8626af8146108cd578063fbfa4b7f146109c9576100dd565b8063d70c03bc14610628578063d83a0f9714610656578063df3d038b1461084c576100dd565b806376d53c24116100bb57806376d53c24146101635780637e03947d1461035657806381d12c58146103815780638d59d1f114610563576100dd565b80631f522595146100df57806350d6eea81461010a578063709cacc214610135575b005b3480156100eb57600080fd5b506100f46109f4565b6040518082815260200191505060405180910390f35b34801561011657600080fd5b5061011f6109fc565b6040518082815260200191505060405180910390f35b6101616004803603602081101561014b57600080fd5b8101908080359060200190929190505050610a04565b005b6103546004803603608081101561017957600080fd5b8101908080359060200190929190803590602001906401000000008111156101a057600080fd5b8201836020820111156101b257600080fd5b803590602001918460018302840111640100000000831117156101d457600080fd5b91908080601f016020809104026020016040519081016040528093929190818152602001838380828437600081840152601f19601f8201169050808301925050505050505091929192908035906020019064010000000081111561023757600080fd5b82018360208201111561024957600080fd5b8035906020019184600183028401116401000000008311171561026b57600080fd5b91908080601f016020809104026020016040519081016040528093929190818152602001838380828437600081840152601f19601f820116905080830192505050505050509192919290803590602001906401000000008111156102ce57600080fd5b8201836020820111156102e057600080fd5b8035906020019184600183028401116401000000008311171561030257600080fd5b91908080601f016020809104026020016040519081016040528093929190818152602001838380828437600081840152601f19601f820116905080830192505050505050509192919290505050611050565b005b34801561036257600080fd5b5061036b6112e2565b6040518082815260200191505060405180910390f35b34801561038d57600080fd5b506103ba600480360360208110156103a457600080fd5b81019080803590602001909291905050506112e8565b604051808a81526020018060200180602001806020018981526020018881526020018781526020018681526020018573ffffffffffffffffffffffffffffffffffffffff1673ffffffffffffffffffffffffffffffffffffffff16815260200184810384528c818151815260200191508051906020019080838360005b83811015610452578082015181840152602081019050610437565b50505050905090810190601f16801561047f5780820380516001836020036101000a031916815260200191505b5084810383528b818151815260200191508051906020019080838360005b838110156104b857808201518184015260208101905061049d565b50505050905090810190601f1680156104e55780820380516001836020036101000a031916815260200191505b5084810382528a818151815260200191508051906020019080838360005b8381101561051e578082015181840152602081019050610503565b50505050905090810190601f16801561054b5780820380516001836020036101000a031916815260200191505b509c5050505050505050505050505060405180910390f35b6106266004803603604081101561057957600080fd5b8101908080359060200190929190803590602001906401000000008111156105a057600080fd5b8201836020820111156105b257600080fd5b803590602001918460018302840111640100000000831117156105d457600080fd5b91908080601f016020809104026020016040519081016040528093929190818152602001838380828437600081840152601f19601f82011690508083019250505050505050919291929050505061151e565b005b6106546004803603602081101561063e57600080fd5b8101908080359060200190929190505050611abb565b005b34801561066257600080fd5b5061084a6004803603606081101561067957600080fd5b810190808035906020019064010000000081111561069657600080fd5b8201836020820111156106a857600080fd5b803590602001918460018302840111640100000000831117156106ca57600080fd5b91908080601f016020809104026020016040519081016040528093929190818152602001838380828437600081840152601f19601f8201169050808301925050505050505091929192908035906020019064010000000081111561072d57600080fd5b82018360208201111561073f57600080fd5b8035906020019184600183028401116401000000008311171561076157600080fd5b91908080601f016020809104026020016040519081016040528093929190818152602001838380828437600081840152601f19601f820116905080830192505050505050509192919290803590602001906401000000008111156107c457600080fd5b8201836020820111156107d657600080fd5b803590602001918460018302840111640100000000831117156107f857600080fd5b91908080601f016020809104026020016040519081016040528093929190818152602001838380828437600081840152601f19601f820116905080830192505050505050509192919290505050612112565b005b34801561085857600080fd5b506108616122ed565b6040518082815260200191505060405180910390f35b34801561088357600080fd5b5061088c6122f5565b6040518082815260200191505060405180910390f35b3480156108ae57600080fd5b506108b76122fc565b6040518082815260200191505060405180910390f35b3480156108d957600080fd5b50610906600480360360208110156108f057600080fd5b8101908080359060200190929190505050612304565b60405180868152602001806020018581526020018481526020018373ffffffffffffffffffffffffffffffffffffffff1673ffffffffffffffffffffffffffffffffffffffff168152602001828103825286818151815260200191508051906020019080838360005b8381101561098a57808201518184015260208101905061096f565b50505050905090810190601f1680156109b75780820380516001836020036101000a031916815260200191505b50965050505050505060405180910390f35b3480156109d557600080fd5b506109de6123f4565b6040518082815260200191505060405180910390f35b62030d465481565b620186a55481565b610a0d816123fa565b610a7f576040517f08c379a00000000000000000000000000000000000000000000000000000000081526004018080602001828103825260138152602001807f496e76616c6964205f646f6e6174696f6e49640000000000000000000000000081525060200191505060405180910390fd5b610a87612649565b62030d4760008381526020019081526020016000206040518060a001604052908160008201548152602001600182018054600181600116156101000203166002900480601f016020809104026020016040519081016040528092919081815260200182805460018160011615610100020316600290048015610b4a5780601f10610b1f57610100808354040283529160200191610b4a565b820191906000526020600020905b815481529060010190602001808311610b2d57829003601f168201915b5050505050815260200160028201548152602001600382015481526020016004820160009054906101000a900473ffffffffffffffffffffffffffffffffffffffff1673ffffffffffffffffffffffffffffffffffffffff1673ffffffffffffffffffffffffffffffffffffffff16815250509050610bc761268e565b60016000836060015181526020019081526020016000206040518061012001604052908160008201548152602001600182018054600181600116156101000203166002900480601f016020809104026020016040519081016040528092919081815260200182805460018160011615610100020316600290048015610c8d5780601f10610c6257610100808354040283529160200191610c8d565b820191906000526020600020905b815481529060010190602001808311610c7057829003601f168201915b50505050508152602001600282018054600181600116156101000203166002900480601f016020809104026020016040519081016040528092919081815260200182805460018160011615610100020316600290048015610d2f5780601f10610d0457610100808354040283529160200191610d2f565b820191906000526020600020905b815481529060010190602001808311610d1257829003601f168201915b50505050508152602001600382018054600181600116156101000203166002900480601f016020809104026020016040519081016040528092919081815260200182805460018160011615610100020316600290048015610dd15780601f10610da657610100808354040283529160200191610dd1565b820191906000526020600020905b815481529060010190602001808311610db457829003601f168201915b50505050508152602001600482015481526020016005820154815260200160068201548152602001600782015481526020016008820160009054906101000a900473ffffffffffffffffffffffffffffffffffffffff1673ffffffffffffffffffffffffffffffffffffffff1673ffffffffffffffffffffffffffffffffffffffff16815250509050816080015173ffffffffffffffffffffffffffffffffffffffff163373ffffffffffffffffffffffffffffffffffffffff1614610ee2576040517f08c379a000000000000000000000000000000000000000000000000000000000815260040180806020018281038252602b81526020018061281c602b913960400191505060405180910390fd5b816080015173ffffffffffffffffffffffffffffffffffffffff166108fc83604001519081150290604051600060405180830381858888f19350505050158015610f30573d6000803e3d6000fd5b5081604001518160c00181815103915081815250506001816080018181510391508181525050806001600083600001518152602001908152602001600020600082015181600001556020820151816001019080519060200190610f949291906126f0565b506040820151816002019080519060200190610fb19291906126f0565b506060820151816003019080519060200190610fce9291906126f0565b506080820151816004015560a0820151816005015560c0820151816006015560e082015181600701556101008201518160080160006101000a81548173ffffffffffffffffffffffffffffffffffffffff021916908373ffffffffffffffffffffffffffffffffffffffff16021790555090505061104b8361244a565b505050565b600084116110c6576040517f08c379a00000000000000000000000000000000000000000000000000000000081526004018080602001828103825260168152602001807f496e76616c6964205f616368696576656d656e7449640000000000000000000081525060200191505060405180910390fd5b3373ffffffffffffffffffffffffffffffffffffffff166001600086815260200190815260200160002060080160009054906101000a900473ffffffffffffffffffffffffffffffffffffffff1673ffffffffffffffffffffffffffffffffffffffff1614611180576040517f08c379a000000000000000000000000000000000000000000000000000000000815260040180806020018281038252603c815260200180612847603c913960400191505060405180910390fd5b620186a3600081548092919060010191905055506040518060c0016040528062030d465481526020018481526020018381526020018281526020018581526020013373ffffffffffffffffffffffffffffffffffffffff16815250620186a46000620186a354815260200190815260200160002060008201518160000155602082015181600101908051906020019061121a9291906126f0565b5060408201518160020190805190602001906112379291906126f0565b5060608201518160030190805190602001906112549291906126f0565b506080820151816004015560a08201518160050160006101000a81548173ffffffffffffffffffffffffffffffffffffffff021916908373ffffffffffffffffffffffffffffffffffffffff160217905550905050620186a354620186a6620186a554620186a081106112c357fe5b0181905550620186a56000815480929190600101919050555050505050565b60025481565b6001602052806000526040600020600091509050806000015490806001018054600181600116156101000203166002900480601f01602080910402602001604051908101604052809291908181526020018280546001816001161561010002031660029004801561139a5780601f1061136f5761010080835404028352916020019161139a565b820191906000526020600020905b81548152906001019060200180831161137d57829003601f168201915b505050505090806002018054600181600116156101000203166002900480601f0160208091040260200160405190810160405280929190818152602001828054600181600116156101000203166002900480156114385780601f1061140d57610100808354040283529160200191611438565b820191906000526020600020905b81548152906001019060200180831161141b57829003601f168201915b505050505090806003018054600181600116156101000203166002900480601f0160208091040260200160405190810160405280929190818152602001828054600181600116156101000203166002900480156114d65780601f106114ab576101008083540402835291602001916114d6565b820191906000526020600020905b8154815290600101906020018083116114b957829003601f168201915b5050505050908060040154908060050154908060060154908060070154908060080160009054906101000a900473ffffffffffffffffffffffffffffffffffffffff16905089565b611527826125b2565b611599576040517f08c379a00000000000000000000000000000000000000000000000000000000081526004018080602001828103825260128152602001807f496e76616c6964205f726571756573744964000000000000000000000000000081525060200191505060405180910390fd5b6115a161268e565b600160008481526020019081526020016000206040518061012001604052908160008201548152602001600182018054600181600116156101000203166002900480601f0160208091040260200160405190810160405280929190818152602001828054600181600116156101000203166002900480156116635780601f1061163857610100808354040283529160200191611663565b820191906000526020600020905b81548152906001019060200180831161164657829003601f168201915b50505050508152602001600282018054600181600116156101000203166002900480601f0160208091040260200160405190810160405280929190818152602001828054600181600116156101000203166002900480156117055780601f106116da57610100808354040283529160200191611705565b820191906000526020600020905b8154815290600101906020018083116116e857829003601f168201915b50505050508152602001600382018054600181600116156101000203166002900480601f0160208091040260200160405190810160405280929190818152602001828054600181600116156101000203166002900480156117a75780601f1061177c576101008083540402835291602001916117a7565b820191906000526020600020905b81548152906001019060200180831161178a57829003601f168201915b50505050508152602001600482015481526020016005820154815260200160068201548152602001600782015481526020016008820160009054906101000a900473ffffffffffffffffffffffffffffffffffffffff1673ffffffffffffffffffffffffffffffffffffffff1673ffffffffffffffffffffffffffffffffffffffff168152505090503073ffffffffffffffffffffffffffffffffffffffff166108fc349081150290604051600060405180830381858888f19350505050158015611876573d6000803e3d6000fd5b50348160c00181815101915081815250506001816080018181510191508181525050348160a001818151019150818152505080600160008581526020019081526020016000206000820151816000015560208201518160010190805190602001906118e29291906126f0565b5060408201518160020190805190602001906118ff9291906126f0565b50606082015181600301908051906020019061191c9291906126f0565b506080820151816004015560a0820151816005015560c0820151816006015560e082015181600701556101008201518160080160006101000a81548173ffffffffffffffffffffffffffffffffffffffff021916908373ffffffffffffffffffffffffffffffffffffffff16021790555090505062030d46600081548092919060010191905055506040518060a0016040528062030d465481526020018381526020013481526020018481526020013373ffffffffffffffffffffffffffffffffffffffff1681525062030d47600062030d46548152602001908152602001600020600082015181600001556020820151816001019080519060200190611a249291906126f0565b50604082015181600201556060820151816003015560808201518160040160006101000a81548173ffffffffffffffffffffffffffffffffffffffff021916908373ffffffffffffffffffffffffffffffffffffffff16021790555090505062030d465462030d4962030d4854620186a08110611a9d57fe5b018190555062030d4860008154809291906001019190505550505050565b611ac4816123fa565b611b36576040517f08c379a00000000000000000000000000000000000000000000000000000000081526004018080602001828103825260138152602001807f496e76616c6964205f646f6e6174696f6e49640000000000000000000000000081525060200191505060405180910390fd5b611b3e612649565b62030d4760008381526020019081526020016000206040518060a001604052908160008201548152602001600182018054600181600116156101000203166002900480601f016020809104026020016040519081016040528092919081815260200182805460018160011615610100020316600290048015611c015780601f10611bd657610100808354040283529160200191611c01565b820191906000526020600020905b815481529060010190602001808311611be457829003601f168201915b5050505050815260200160028201548152602001600382015481526020016004820160009054906101000a900473ffffffffffffffffffffffffffffffffffffffff1673ffffffffffffffffffffffffffffffffffffffff1673ffffffffffffffffffffffffffffffffffffffff16815250509050611c7e61268e565b60016000836060015181526020019081526020016000206040518061012001604052908160008201548152602001600182018054600181600116156101000203166002900480601f016020809104026020016040519081016040528092919081815260200182805460018160011615610100020316600290048015611d445780601f10611d1957610100808354040283529160200191611d44565b820191906000526020600020905b815481529060010190602001808311611d2757829003601f168201915b50505050508152602001600282018054600181600116156101000203166002900480601f016020809104026020016040519081016040528092919081815260200182805460018160011615610100020316600290048015611de65780601f10611dbb57610100808354040283529160200191611de6565b820191906000526020600020905b815481529060010190602001808311611dc957829003601f168201915b50505050508152602001600382018054600181600116156101000203166002900480601f016020809104026020016040519081016040528092919081815260200182805460018160011615610100020316600290048015611e885780601f10611e5d57610100808354040283529160200191611e88565b820191906000526020600020905b815481529060010190602001808311611e6b57829003601f168201915b50505050508152602001600482015481526020016005820154815260200160068201548152602001600782015481526020016008820160009054906101000a900473ffffffffffffffffffffffffffffffffffffffff1673ffffffffffffffffffffffffffffffffffffffff1673ffffffffffffffffffffffffffffffffffffffff16815250509050600081610100015190508073ffffffffffffffffffffffffffffffffffffffff163373ffffffffffffffffffffffffffffffffffffffff1614611f9f576040517f08c379a000000000000000000000000000000000000000000000000000000000815260040180806020018281038252603e8152602001806127de603e913960400191505060405180910390fd5b81610100015173ffffffffffffffffffffffffffffffffffffffff166108fc84604001519081150290604051600060405180830381858888f19350505050158015611fee573d6000803e3d6000fd5b5082604001518260e001818151019150818152505082604001518260c00181815103915081815250508160016000846000015181526020019081526020016000206000820151816000015560208201518160010190805190602001906120559291906126f0565b5060408201518160020190805190602001906120729291906126f0565b50606082015181600301908051906020019061208f9291906126f0565b506080820151816004015560a0820151816005015560c0820151816006015560e082015181600701556101008201518160080160006101000a81548173ffffffffffffffffffffffffffffffffffffffff021916908373ffffffffffffffffffffffffffffffffffffffff16021790555090505061210c8461244a565b50505050565b600083511161212057600080fd5b600081511161212e57600080fd5b600073ffffffffffffffffffffffffffffffffffffffff163373ffffffffffffffffffffffffffffffffffffffff16141561216857600080fd5b60008081548092919060010191905055506040518061012001604052806000548152602001848152602001838152602001828152602001600081526020016000815260200160008152602001600081526020013373ffffffffffffffffffffffffffffffffffffffff16815250600160008054815260200190815260200160002060008201518160000155602082015181600101908051906020019061220f9291906126f0565b50604082015181600201908051906020019061222c9291906126f0565b5060608201518160030190805190602001906122499291906126f0565b506080820151816004015560a0820151816005015560c0820151816006015560e082015181600701556101008201518160080160006101000a81548173ffffffffffffffffffffffffffffffffffffffff021916908373ffffffffffffffffffffffffffffffffffffffff1602179055509050506000546003600254620186a081106122d157fe5b0181905550600260008154809291906001019190505550505050565b62030d485481565b620186a081565b620186a35481565b62030d47602052806000526040600020600091509050806000015490806001018054600181600116156101000203166002900480601f0160208091040260200160405190810160405280929190818152602001828054600181600116156101000203166002900480156123b85780601f1061238d576101008083540402835291602001916123b8565b820191906000526020600020905b81548152906001019060200180831161239b57829003601f168201915b5050505050908060020154908060030154908060040160009054906101000a900473ffffffffffffffffffffffffffffffffffffffff16905085565b60005481565b600080600090505b62030d485481101561243f578262030d4982620186a0811061242057fe5b01541415612432576001915050612445565b8080600101915050612402565b50600090505b919050565b612453816123fa565b6124c5576040517f08c379a00000000000000000000000000000000000000000000000000000000081526004018080602001828103825260138152602001807f496e76616c6964205f646f6e6174696f6e49640000000000000000000000000081525060200191505060405180910390fd5b60006124d0826125fe565b905062030d496001620186a003620186a081106124e957fe5b015462030d4982620186a081106124fc57fe5b018190555062030d496001620186a003620186a0811061251857fe5b016000905562030d48600081548092919060019003919050555062030d46600081548092919060019003919050555062030d4760008381526020019081526020016000206000808201600090556001820160006125759190612770565b600282016000905560038201600090556004820160006101000a81549073ffffffffffffffffffffffffffffffffffffffff021916905550505050565b600080600090505b6002548110156125f35782600382620186a081106125d457fe5b015414156125e65760019150506125f9565b80806001019150506125ba565b50600090505b919050565b600080600090505b62030d4854811015612642578262030d4982620186a0811061262457fe5b015414156126355780915050612644565b8080600101915050612606565b505b919050565b6040518060a0016040528060008152602001606081526020016000815260200160008152602001600073ffffffffffffffffffffffffffffffffffffffff1681525090565b6040518061012001604052806000815260200160608152602001606081526020016060815260200160008152602001600081526020016000815260200160008152602001600073ffffffffffffffffffffffffffffffffffffffff1681525090565b828054600181600116156101000203166002900490600052602060002090601f016020900481019282601f1061273157805160ff191683800117855561275f565b8280016001018555821561275f579182015b8281111561275e578251825591602001919060010190612743565b5b50905061276c91906127b8565b5090565b50805460018160011615610100020316600290046000825580601f1061279657506127b5565b601f0160209004906000526020600020908101906127b491906127b8565b5b50565b6127da91905b808211156127d65760008160009055506001016127be565b5090565b9056fe4f6e6c792074686520726571756573746572206d617920726563656976652074686520446f6e6174696f6e73206f6620746865697220526571756573742e4f6e6c792074686520646f6e61746f72206d617920726566756e6420746865697220446f6e6174696f6e2e4f6e6c792074686520726571756573746572206d61792075706c6f616420416368696576656d656e747320746f20746865697220526571756573742ea265627a7a72315820803318ba056c4e89a955ba1561bca9575de9c68e885e9c6a355bee762e05628164736f6c63430005100032",
  "source": "pragma solidity ^0.5.16;\r\n\r\ncontract Donator {\r\n    //address private tokenAddress;\r\n    int constant public maxEntries = 100000;\r\n\r\n    uint256 public requestsCount = 0;\r\n    mapping(uint256 => Request) public requests;\r\n    uint256 public idsOfRequestsCount = 0;\r\n    uint256 [maxEntries] idsOfRequests;\r\n\r\n    uint256 public achievementsCount = 0;\r\n    mapping(uint256 => Achievement) achievements;\r\n    uint256 public idsOfAchievementsCount = 0;\r\n    uint256 [maxEntries] idsOfAchievements;\r\n\r\n    uint256 public donationsCount = 0;\r\n    mapping(uint256 => Donation) public donations;\r\n    uint256 public idsOfDonationsCount = 0;\r\n    uint256 [maxEntries] idsOfDonations;\r\n\r\n    struct Request {\r\n        uint256 id;\r\n        string hash;\r\n        string title;\r\n        string description;\r\n        uint256 numDonations;\r\n        uint256 totalDonationsAmount;\r\n        uint256 outstandingDonations;\r\n        uint256 acceptedDonations;\r\n        address payable requester;\r\n    }\r\n\r\n    struct Achievement {\r\n        uint256 id;\r\n        string hash;\r\n        string title;\r\n        string description;\r\n        uint256 requestId;\r\n        address payable requester;\r\n    }\r\n\r\n    struct Donation {\r\n        uint256 id;\r\n        string description;\r\n        uint256 amount;\r\n        uint256 requestId;\r\n        address payable donator;\r\n    }\r\n\r\n    constructor() public {\r\n        //tokenAddress = _tokenAddress;\r\n    }\r\n    \r\n    function() external payable {}\r\n\r\n    function uploadRequest(\r\n        string memory _hash,\r\n        string memory _title,\r\n        string memory _description\r\n    ) public {\r\n        require(bytes(_hash).length > 0);\r\n        require(bytes(_description).length > 0);\r\n        require(msg.sender != address(0));\r\n\r\n        requestsCount++;\r\n\r\n        // Set a spot in the mapping to a new Request\r\n        requests[requestsCount] = Request(\r\n            requestsCount,\r\n            _hash,\r\n            _title,\r\n            _description,\r\n            0,\r\n            0,\r\n            0,\r\n            0,\r\n            msg.sender\r\n        );\r\n        \r\n        // Store the id\r\n        idsOfRequests[idsOfRequestsCount] = requestsCount;\r\n        idsOfRequestsCount++;\r\n    }\r\n\r\n    function uploadAchievement(\r\n        uint256 _requestId,\r\n        string memory _hash,\r\n        string memory _title,\r\n        string memory _description\r\n    ) public payable {\r\n        require(\r\n            _requestId > 0, \"Invalid _achievementId\"\r\n        );\r\n\r\n        require(\r\n            requests[_requestId].requester == msg.sender,\r\n            \"Only the requester may upload Achievements to their Request.\"\r\n        );\r\n\r\n        achievementsCount++;\r\n\r\n        // Set a spot in the mapping to a new Achievement\r\n        achievements[achievementsCount] = Achievement(\r\n            donationsCount,\r\n            _hash,\r\n            _title,\r\n            _description,\r\n            _requestId,\r\n            msg.sender\r\n        );\r\n        \r\n        // Store the id\r\n        idsOfAchievements[idsOfAchievementsCount] = achievementsCount;\r\n        idsOfAchievementsCount++;\r\n    }\r\n\r\n    function donate(uint256 _requestId, string memory _description)\r\n        public\r\n        payable\r\n    {\r\n        require(\r\n            doesRequestExist(_requestId), \"Invalid _requestId\"\r\n        );\r\n\r\n        Request memory _request = requests[_requestId];\r\n\r\n        // Pay the smart contract. Funds come from a donator.\r\n        address(this).transfer(msg.value);\r\n\r\n        // Update the field on the Request\r\n        _request.outstandingDonations += msg.value;\r\n        _request.numDonations += 1;\r\n        _request.totalDonationsAmount += msg.value;\r\n        requests[_requestId] = _request;\r\n\r\n        donationsCount++;\r\n\r\n        // Set a spot in the mapping to a new Donation\r\n        donations[donationsCount] = Donation(\r\n            donationsCount,\r\n            _description,\r\n            msg.value,\r\n            _requestId,\r\n            msg.sender\r\n        );\r\n        \r\n        // Store the id\r\n        idsOfDonations[idsOfDonationsCount] = donationsCount;\r\n        idsOfDonationsCount++;\r\n    }\r\n\r\n    function receiveDonation(uint256 _donationId) public payable {\r\n        require(\r\n            doesDonationExist(_donationId), \"Invalid _donationId\"\r\n        );\r\n\r\n        Donation memory _donation = donations[_donationId];\r\n        Request memory _request = requests[_donation.requestId];\r\n        address payable _requester = _request.requester;\r\n\r\n        // Ensure that the actor is the correct requester\r\n        require(\r\n            msg.sender == _requester,\r\n            \"Only the requester may receive the Donations of their Request.\"\r\n        );\r\n\r\n        // Pay the receiver. Funds come from the smart contract.\r\n        _request.requester.transfer(_donation.amount);\r\n\r\n        // Update the fields on the Request\r\n        _request.acceptedDonations += _donation.amount;\r\n        _request.outstandingDonations -= _donation.amount;\r\n        requests[_request.id] = _request;\r\n\r\n        deleteDonation(_donationId);\r\n    }\r\n    \r\n    function refundDonation(uint256 _donationId) public payable {\r\n        require(\r\n            doesDonationExist(_donationId), \"Invalid _donationId\"\r\n        );\r\n        \r\n        Donation memory _donation = donations[_donationId];\r\n                Request memory _request = requests[\r\n            _donation.requestId\r\n        ];\r\n        \r\n        // Ensure that the actor is the correct donator\r\n        require(\r\n            msg.sender == _donation.donator,\r\n            \"Only the donator may refund their Donation.\"\r\n        );\r\n        \r\n        // Pay back the donator. Funds come from the smart contract.\r\n        _donation.donator.transfer(_donation.amount);\r\n        \r\n        // Update the fields on the Request\r\n        _request.outstandingDonations -= _donation.amount;\r\n        _request.numDonations -= 1;\r\n        requests[_request.id] = _request;\r\n        \r\n        deleteDonation(_donationId);\r\n    }\r\n\r\n    function deleteRequest(uint256 _requestId) private {\r\n        require(\r\n            doesRequestExist(_requestId), \"Invalid _requestId\"\r\n            );\r\n        \r\n        // Delete id from array\r\n        uint256 _index = getIndexOfRequestId(_requestId);\r\n        idsOfRequests[_index] = idsOfRequests[idsOfRequests.length - 1];\r\n        delete idsOfRequests[idsOfRequests.length - 1];\r\n        idsOfRequestsCount--;\r\n        \r\n        requestsCount--;\r\n        delete (requests[_requestId]);\r\n    }\r\n\r\n    function deleteAchievemnt(uint256 _achievementId) private {\r\n        require(\r\n             doesAchievementExist(_achievementId), \"Invalid _achievementId\"\r\n            );\r\n        \r\n        // Delete id from array\r\n        uint256 _index = getIndexOfAchievementId(_achievementId);\r\n        idsOfAchievements[_index] = idsOfAchievements[idsOfAchievements.length - 1];\r\n        delete idsOfAchievements[idsOfAchievements.length - 1];\r\n        idsOfAchievementsCount--;\r\n        \r\n        achievementsCount--;\r\n        delete (achievements[_achievementId]);\r\n    }\r\n\r\n    function deleteDonation(uint256 _donationId) private {\r\n        require(\r\n            doesDonationExist(_donationId), \"Invalid _donationId\"\r\n            );\r\n        \r\n        // Delete id from array\r\n        uint256 _index = getIndexOfDonationId(_donationId);\r\n        idsOfDonations[_index] = idsOfDonations[idsOfDonations.length - 1];\r\n        delete idsOfDonations[idsOfDonations.length - 1];\r\n        idsOfDonationsCount--;\r\n        \r\n        donationsCount--;\r\n        delete (donations[_donationId]);\r\n    }\r\n    \r\n        function getIndexOfRequestId(uint256 _id) private view returns(uint256 index) {\r\n        for (uint256 i = 0; i < idsOfRequestsCount; i++) {\r\n            if (idsOfRequests[i] == _id) {\r\n                return i;\r\n            }\r\n        }\r\n    }\r\n    \r\n        function getIndexOfAchievementId(uint256 _id) private view returns(uint256 index) {\r\n        for (uint256 i = 0; i < idsOfAchievementsCount; i++) {\r\n            if (idsOfAchievements[i] == _id) {\r\n                return i;\r\n            }\r\n        }\r\n    }\r\n    \r\n    function getIndexOfDonationId(uint256 _id) private view returns(uint256 index) {\r\n        for (uint256 i = 0; i < idsOfDonationsCount; i++) {\r\n            if (idsOfDonations[i] == _id) {\r\n                return i;\r\n            }\r\n        }\r\n    }\r\n    \r\n    function doesRequestExist(uint256 _requestId) private view returns(bool exists) {\r\n        for (uint256 i = 0; i < idsOfRequestsCount; i++) {\r\n            if (idsOfRequests[i] == _requestId) {\r\n                return true;\r\n            }\r\n        }\r\n        return false;\r\n    }\r\n    \r\n    function doesAchievementExist(uint256 _achievementId) private view returns(bool exists) {\r\n        for (uint256 i = 0; i < idsOfAchievementsCount; i++) {\r\n            if (idsOfAchievements[i] == _achievementId) {\r\n                return true;\r\n            }\r\n        }\r\n        return false;\r\n    }\r\n    \r\n    function doesDonationExist(uint256 _donationId) private view returns(bool exists) {\r\n        for (uint256 i = 0; i < idsOfDonationsCount; i++) {\r\n            if (idsOfDonations[i] == _donationId) {\r\n                return true;\r\n            }\r\n        }\r\n        return false;\r\n    }\r\n}\r\n",
  "sourcePath": "C:/Users/rossb/Documents/Donator/Donator/src/contracts/Donator_v1.sol",
  "compiler": {
    "name": "solc",
    "version": "0.5.16+commit.9c3226ce.Emscripten.clang"
  },
  "schemaVersion": "3.4.1",
  "updatedAt": "2021-09-20T22:13:57.427Z",
  "networkType": "ethereum",
  "devdoc": {
    "methods": {}
  },
  "userdoc": {
    "methods": {}
  }
}