{
  "contractName": "Donator",
  "abi": [
    {
      "inputs": [],
      "payable": false,
      "stateMutability": "nonpayable",
      "type": "constructor"
    },
    {
      "payable": true,
      "stateMutability": "payable",
      "type": "fallback"
    },
    {
      "constant": true,
      "inputs": [
        {
          "internalType": "uint256",
          "name": "",
          "type": "uint256"
        }
      ],
      "name": "donationRequests",
      "outputs": [
        {
          "internalType": "uint256",
          "name": "id",
          "type": "uint256"
        },
        {
          "internalType": "string",
          "name": "hash",
          "type": "string"
        },
        {
          "internalType": "string",
          "name": "description",
          "type": "string"
        },
        {
          "internalType": "uint256",
          "name": "unclaimedDonations",
          "type": "uint256"
        },
        {
          "internalType": "uint256",
          "name": "claimedDonations",
          "type": "uint256"
        },
        {
          "internalType": "address payable",
          "name": "receiverAddress",
          "type": "address"
        }
      ],
      "payable": false,
      "stateMutability": "view",
      "type": "function"
    },
    {
      "constant": true,
      "inputs": [],
      "name": "donationRequestsCount",
      "outputs": [
        {
          "internalType": "uint256",
          "name": "",
          "type": "uint256"
        }
      ],
      "payable": false,
      "stateMutability": "view",
      "type": "function"
    },
    {
      "constant": true,
      "inputs": [
        {
          "internalType": "uint256",
          "name": "",
          "type": "uint256"
        }
      ],
      "name": "donations",
      "outputs": [
        {
          "internalType": "uint256",
          "name": "id",
          "type": "uint256"
        },
        {
          "internalType": "string",
          "name": "description",
          "type": "string"
        },
        {
          "internalType": "uint256",
          "name": "expirationDate",
          "type": "uint256"
        },
        {
          "internalType": "uint256",
          "name": "amount",
          "type": "uint256"
        },
        {
          "internalType": "uint256",
          "name": "donationRequestId",
          "type": "uint256"
        },
        {
          "internalType": "address payable",
          "name": "donator",
          "type": "address"
        }
      ],
      "payable": false,
      "stateMutability": "view",
      "type": "function"
    },
    {
      "constant": true,
      "inputs": [],
      "name": "donationsCount",
      "outputs": [
        {
          "internalType": "uint256",
          "name": "",
          "type": "uint256"
        }
      ],
      "payable": false,
      "stateMutability": "view",
      "type": "function"
    },
    {
      "constant": true,
      "inputs": [],
      "name": "name",
      "outputs": [
        {
          "internalType": "string",
          "name": "",
          "type": "string"
        }
      ],
      "payable": false,
      "stateMutability": "view",
      "type": "function"
    },
    {
      "constant": false,
      "inputs": [
        {
          "internalType": "string",
          "name": "_hash",
          "type": "string"
        },
        {
          "internalType": "string",
          "name": "_description",
          "type": "string"
        }
      ],
      "name": "uploadDonationRequest",
      "outputs": [],
      "payable": false,
      "stateMutability": "nonpayable",
      "type": "function"
    },
    {
      "constant": false,
      "inputs": [
        {
          "internalType": "uint256",
          "name": "_donationRequestId",
          "type": "uint256"
        },
        {
          "internalType": "string",
          "name": "_description",
          "type": "string"
        },
        {
          "internalType": "uint256",
          "name": "_expDateInUnixTime",
          "type": "uint256"
        }
      ],
      "name": "donate",
      "outputs": [],
      "payable": true,
      "stateMutability": "payable",
      "type": "function"
    },
    {
      "constant": false,
      "inputs": [
        {
          "internalType": "uint256",
          "name": "_donationId",
          "type": "uint256"
        }
      ],
      "name": "receiveDonation",
      "outputs": [],
      "payable": true,
      "stateMutability": "payable",
      "type": "function"
    },
    {
      "constant": false,
      "inputs": [
        {
          "internalType": "uint256",
          "name": "_donationId",
          "type": "uint256"
        }
      ],
      "name": "refundDonation",
      "outputs": [],
      "payable": true,
      "stateMutability": "payable",
      "type": "function"
    }
  ],
  "bytecode": "0x6080604052600060015560006003553480156200001b57600080fd5b506040518060400160405280600781526020017f446f6e61746f7200000000000000000000000000000000000000000000000000815250600090805190602001906200006992919062000070565b506200011f565b828054600181600116156101000203166002900490600052602060002090601f016020900481019282601f10620000b357805160ff1916838001178555620000e4565b82800160010185558215620000e4579182015b82811115620000e3578251825591602001919060010190620000c6565b5b509050620000f39190620000f7565b5090565b6200011c91905b8082111562000118576000816000905550600101620000fe565b5090565b90565b611b23806200012f6000396000f3fe6080604052600436106100865760003560e01c8063709cacc211610059578063709cacc21461037a57806377f77116146103a857806383006de9146103d3578063d70c03bc14610532578063f8626af81461056057610086565b806306fdde03146100885780631f522595146101185780634495cd0f14610143578063692f60be14610212575b005b34801561009457600080fd5b5061009d610663565b6040518080602001828103825283818151815260200191508051906020019080838360005b838110156100dd5780820151818401526020810190506100c2565b50505050905090810190601f16801561010a5780820380516001836020036101000a031916815260200191505b509250505060405180910390f35b34801561012457600080fd5b5061012d610701565b6040518082815260200191505060405180910390f35b6102106004803603606081101561015957600080fd5b81019080803590602001909291908035906020019064010000000081111561018057600080fd5b82018360208201111561019257600080fd5b803590602001918460018302840111640100000000831117156101b457600080fd5b91908080601f016020809104026020016040519081016040528093929190818152602001838380828437600081840152601f19601f82011690508083019250505050505050919291929080359060200190929190505050610707565b005b34801561021e57600080fd5b5061024b6004803603602081101561023557600080fd5b8101908080359060200190929190505050610b10565b6040518087815260200180602001806020018681526020018581526020018473ffffffffffffffffffffffffffffffffffffffff1673ffffffffffffffffffffffffffffffffffffffff168152602001838103835288818151815260200191508051906020019080838360005b838110156102d35780820151818401526020810190506102b8565b50505050905090810190601f1680156103005780820380516001836020036101000a031916815260200191505b50838103825287818151815260200191508051906020019080838360005b8381101561033957808201518184015260208101905061031e565b50505050905090810190601f1680156103665780820380516001836020036101000a031916815260200191505b509850505050505050505060405180910390f35b6103a66004803603602081101561039057600080fd5b8101908080359060200190929190505050610c9c565b005b3480156103b457600080fd5b506103bd611157565b6040518082815260200191505060405180910390f35b3480156103df57600080fd5b50610530600480360360408110156103f657600080fd5b810190808035906020019064010000000081111561041357600080fd5b82018360208201111561042557600080fd5b8035906020019184600183028401116401000000008311171561044757600080fd5b91908080601f016020809104026020016040519081016040528093929190818152602001838380828437600081840152601f19601f820116905080830192505050505050509192919290803590602001906401000000008111156104aa57600080fd5b8201836020820111156104bc57600080fd5b803590602001918460018302840111640100000000831117156104de57600080fd5b91908080601f016020809104026020016040519081016040528093929190818152602001838380828437600081840152601f19601f82011690508083019250505050505050919291929050505061115d565b005b61055e6004803603602081101561054857600080fd5b81019080803590602001909291905050506112c7565b005b34801561056c57600080fd5b506105996004803603602081101561058357600080fd5b810190808035906020019092919050505061183f565b60405180878152602001806020018681526020018581526020018481526020018373ffffffffffffffffffffffffffffffffffffffff1673ffffffffffffffffffffffffffffffffffffffff168152602001828103825287818151815260200191508051906020019080838360005b83811015610623578082015181840152602081019050610608565b50505050905090810190601f1680156106505780820380516001836020036101000a031916815260200191505b5097505050505050505060405180910390f35b60008054600181600116156101000203166002900480601f0160208091040260200160405190810160405280929190818152602001828054600181600116156101000203166002900480156106f95780601f106106ce576101008083540402835291602001916106f9565b820191906000526020600020905b8154815290600101906020018083116106dc57829003601f168201915b505050505081565b60035481565b60008311801561071957506001548311155b61072257600080fd5b61072a611933565b600260008581526020019081526020016000206040518060c001604052908160008201548152602001600182018054600181600116156101000203166002900480601f0160208091040260200160405190810160405280929190818152602001828054600181600116156101000203166002900480156107eb5780601f106107c0576101008083540402835291602001916107eb565b820191906000526020600020905b8154815290600101906020018083116107ce57829003601f168201915b50505050508152602001600282018054600181600116156101000203166002900480601f01602080910402602001604051908101604052809291908181526020018280546001816001161561010002031660029004801561088d5780601f106108625761010080835404028352916020019161088d565b820191906000526020600020905b81548152906001019060200180831161087057829003601f168201915b5050505050815260200160038201548152602001600482015481526020016005820160009054906101000a900473ffffffffffffffffffffffffffffffffffffffff1673ffffffffffffffffffffffffffffffffffffffff1673ffffffffffffffffffffffffffffffffffffffff168152505090503073ffffffffffffffffffffffffffffffffffffffff166108fc349081150290604051600060405180830381858888f19350505050158015610948573d6000803e3d6000fd5b5034816060018181510191508181525050806002600086815260200190815260200160002060008201518160000155602082015181600101908051906020019061099392919061197f565b5060408201518160020190805190602001906109b092919061197f565b50606082015181600301556080820151816004015560a08201518160050160006101000a81548173ffffffffffffffffffffffffffffffffffffffff021916908373ffffffffffffffffffffffffffffffffffffffff1602179055509050506003600081548092919060010191905055506040518060c0016040528060035481526020018481526020018381526020013481526020018581526020013373ffffffffffffffffffffffffffffffffffffffff16815250600460006003548152602001908152602001600020600082015181600001556020820151816001019080519060200190610aa192919061197f565b5060408201518160020155606082015181600301556080820151816004015560a08201518160050160006101000a81548173ffffffffffffffffffffffffffffffffffffffff021916908373ffffffffffffffffffffffffffffffffffffffff16021790555090505050505050565b6002602052806000526040600020600091509050806000015490806001018054600181600116156101000203166002900480601f016020809104026020016040519081016040528092919081815260200182805460018160011615610100020316600290048015610bc25780601f10610b9757610100808354040283529160200191610bc2565b820191906000526020600020905b815481529060010190602001808311610ba557829003601f168201915b505050505090806002018054600181600116156101000203166002900480601f016020809104026020016040519081016040528092919081815260200182805460018160011615610100020316600290048015610c605780601f10610c3557610100808354040283529160200191610c60565b820191906000526020600020905b815481529060010190602001808311610c4357829003601f168201915b5050505050908060030154908060040154908060050160009054906101000a900473ffffffffffffffffffffffffffffffffffffffff16905086565b610ca46119ff565b600460008381526020019081526020016000206040518060c001604052908160008201548152602001600182018054600181600116156101000203166002900480601f016020809104026020016040519081016040528092919081815260200182805460018160011615610100020316600290048015610d655780601f10610d3a57610100808354040283529160200191610d65565b820191906000526020600020905b815481529060010190602001808311610d4857829003601f168201915b505050505081526020016002820154815260200160038201548152602001600482015481526020016005820160009054906101000a900473ffffffffffffffffffffffffffffffffffffffff1673ffffffffffffffffffffffffffffffffffffffff1673ffffffffffffffffffffffffffffffffffffffff16815250509050610dec611933565b60026000836080015181526020019081526020016000206040518060c001604052908160008201548152602001600182018054600181600116156101000203166002900480601f016020809104026020016040519081016040528092919081815260200182805460018160011615610100020316600290048015610eb15780601f10610e8657610100808354040283529160200191610eb1565b820191906000526020600020905b815481529060010190602001808311610e9457829003601f168201915b50505050508152602001600282018054600181600116156101000203166002900480601f016020809104026020016040519081016040528092919081815260200182805460018160011615610100020316600290048015610f535780601f10610f2857610100808354040283529160200191610f53565b820191906000526020600020905b815481529060010190602001808311610f3657829003601f168201915b5050505050815260200160038201548152602001600482015481526020016005820160009054906101000a900473ffffffffffffffffffffffffffffffffffffffff1673ffffffffffffffffffffffffffffffffffffffff1673ffffffffffffffffffffffffffffffffffffffff168152505090508160a0015173ffffffffffffffffffffffffffffffffffffffff166108fc83606001519081150290604051600060405180830381858888f19350505050158015611016573d6000803e3d6000fd5b50816060015181606001818151039150818152505080600260008360000151815260200190815260200160002060008201518160000155602082015181600101908051906020019061106992919061197f565b50604082015181600201908051906020019061108692919061197f565b50606082015181600301556080820151816004015560a08201518160050160006101000a81548173ffffffffffffffffffffffffffffffffffffffff021916908373ffffffffffffffffffffffffffffffffffffffff160217905550905050600460008481526020019081526020016000206000808201600090556001820160006111119190611a4b565b6002820160009055600382016000905560048201600090556005820160006101000a81549073ffffffffffffffffffffffffffffffffffffffff02191690555050505050565b60015481565b600082511161116b57600080fd5b600081511161117957600080fd5b600073ffffffffffffffffffffffffffffffffffffffff163373ffffffffffffffffffffffffffffffffffffffff1614156111b357600080fd5b6001600081548092919060010191905055506040518060c00160405280600154815260200183815260200182815260200160008152602001600081526020013373ffffffffffffffffffffffffffffffffffffffff1681525060026000600154815260200190815260200160002060008201518160000155602082015181600101908051906020019061124792919061197f565b50604082015181600201908051906020019061126492919061197f565b50606082015181600301556080820151816004015560a08201518160050160006101000a81548173ffffffffffffffffffffffffffffffffffffffff021916908373ffffffffffffffffffffffffffffffffffffffff1602179055509050505050565b6000811180156112d957506003548111155b6112e257600080fd5b6112ea6119ff565b600460008381526020019081526020016000206040518060c001604052908160008201548152602001600182018054600181600116156101000203166002900480601f0160208091040260200160405190810160405280929190818152602001828054600181600116156101000203166002900480156113ab5780601f10611380576101008083540402835291602001916113ab565b820191906000526020600020905b81548152906001019060200180831161138e57829003601f168201915b505050505081526020016002820154815260200160038201548152602001600482015481526020016005820160009054906101000a900473ffffffffffffffffffffffffffffffffffffffff1673ffffffffffffffffffffffffffffffffffffffff1673ffffffffffffffffffffffffffffffffffffffff16815250509050611432611933565b60026000836080015181526020019081526020016000206040518060c001604052908160008201548152602001600182018054600181600116156101000203166002900480601f0160208091040260200160405190810160405280929190818152602001828054600181600116156101000203166002900480156114f75780601f106114cc576101008083540402835291602001916114f7565b820191906000526020600020905b8154815290600101906020018083116114da57829003601f168201915b50505050508152602001600282018054600181600116156101000203166002900480601f0160208091040260200160405190810160405280929190818152602001828054600181600116156101000203166002900480156115995780601f1061156e57610100808354040283529160200191611599565b820191906000526020600020905b81548152906001019060200180831161157c57829003601f168201915b5050505050815260200160038201548152602001600482015481526020016005820160009054906101000a900473ffffffffffffffffffffffffffffffffffffffff1673ffffffffffffffffffffffffffffffffffffffff1673ffffffffffffffffffffffffffffffffffffffff1681525050905060008160a0015190508073ffffffffffffffffffffffffffffffffffffffff163373ffffffffffffffffffffffffffffffffffffffff161461169b576040517f08c379a0000000000000000000000000000000000000000000000000000000008152600401808060200182810382526036815260200180611ab96036913960400191505060405180910390fd5b8160a0015173ffffffffffffffffffffffffffffffffffffffff166108fc84606001519081150290604051600060405180830381858888f193505050501580156116e9573d6000803e3d6000fd5b508260600151826080018181510191508181525050826060015182606001818151039150818152505081600260008460000151815260200190815260200160002060008201518160000155602082015181600101908051906020019061175092919061197f565b50604082015181600201908051906020019061176d92919061197f565b50606082015181600301556080820151816004015560a08201518160050160006101000a81548173ffffffffffffffffffffffffffffffffffffffff021916908373ffffffffffffffffffffffffffffffffffffffff160217905550905050600460008581526020019081526020016000206000808201600090556001820160006117f89190611a4b565b6002820160009055600382016000905560048201600090556005820160006101000a81549073ffffffffffffffffffffffffffffffffffffffff0219169055505050505050565b6004602052806000526040600020600091509050806000015490806001018054600181600116156101000203166002900480601f0160208091040260200160405190810160405280929190818152602001828054600181600116156101000203166002900480156118f15780601f106118c6576101008083540402835291602001916118f1565b820191906000526020600020905b8154815290600101906020018083116118d457829003601f168201915b5050505050908060020154908060030154908060040154908060050160009054906101000a900473ffffffffffffffffffffffffffffffffffffffff16905086565b6040518060c001604052806000815260200160608152602001606081526020016000815260200160008152602001600073ffffffffffffffffffffffffffffffffffffffff1681525090565b828054600181600116156101000203166002900490600052602060002090601f016020900481019282601f106119c057805160ff19168380011785556119ee565b828001600101855582156119ee579182015b828111156119ed5782518255916020019190600101906119d2565b5b5090506119fb9190611a93565b5090565b6040518060c001604052806000815260200160608152602001600081526020016000815260200160008152602001600073ffffffffffffffffffffffffffffffffffffffff1681525090565b50805460018160011615610100020316600290046000825580601f10611a715750611a90565b601f016020900490600052602060002090810190611a8f9190611a93565b5b50565b611ab591905b80821115611ab1576000816000905550600101611a99565b5090565b9056fe5468652075736572206d75737420626520746865207265636569766572206f662074686520446f6e6174696f6e20526571756573742ea265627a7a723158203d5678314cc692b9acb258257f0e454fded35e75b72dcb2f13e9e0a6d71dca7e64736f6c63430005100032",
  "source": "pragma solidity ^0.5.0;\r\n\r\ncontract Donator {\r\n    string public name;\r\n\r\n    uint256 public donationRequestsCount = 0;\r\n    mapping(uint256 => DonationRequest) public donationRequests;\r\n\r\n    uint256 public donationsCount = 0;\r\n    mapping(uint256 => Donation) public donations;\r\n\r\n    struct DonationRequest {\r\n        uint256 id;\r\n        string hash;\r\n        string description;\r\n        uint256 unclaimedDonations;\r\n        uint256 claimedDonations;\r\n        address payable receiverAddress;\r\n    }\r\n\r\n    struct Donation {\r\n        uint256 id;\r\n        string description;\r\n        uint256 expirationDate;\r\n        uint256 amount;\r\n        uint256 donationRequestId;\r\n        address payable donator;\r\n    }\r\n\r\n    constructor() public {\r\n        name = \"Donator\";\r\n    }\r\n\r\n    function() external payable {}\r\n\r\n    function uploadDonationRequest(\r\n        string memory _hash,\r\n        string memory _description\r\n    ) public {\r\n        require(bytes(_hash).length > 0);\r\n        require(bytes(_description).length > 0);\r\n        require(msg.sender != address(0));\r\n\r\n        donationRequestsCount++;\r\n\r\n        // Set a spot in the mapping to a new DonationRequest\r\n        donationRequests[donationRequestsCount] = DonationRequest(\r\n            donationRequestsCount,\r\n            _hash,\r\n            _description,\r\n            0,\r\n            0,\r\n            msg.sender\r\n        );\r\n    }\r\n\r\n    function donate(\r\n        uint256 _donationRequestId,\r\n        string memory _description,\r\n        uint256 _expDateInUnixTime\r\n    ) public payable {\r\n        require(\r\n            _donationRequestId > 0 &&\r\n            _donationRequestId <= donationRequestsCount\r\n        );\r\n\r\n        DonationRequest memory _donationRequest = donationRequests[\r\n            _donationRequestId\r\n        ];\r\n\r\n        // Pay the smart contract. Funds come from a donator.\r\n        address(this).transfer(msg.value);\r\n\r\n        // Update the field on the DonationRequest\r\n        _donationRequest.unclaimedDonations += msg.value;\r\n        donationRequests[_donationRequestId] = _donationRequest;\r\n\r\n        donationsCount++;\r\n\r\n        // Set a spot in the mapping to a new Donation\r\n        donations[donationsCount] = Donation(\r\n            donationsCount,\r\n            _description,\r\n            _expDateInUnixTime,\r\n            msg.value,\r\n            _donationRequestId,\r\n            msg.sender\r\n        );\r\n    }\r\n\r\n    function receiveDonation(uint256 _donationId) public payable {\r\n        require(_donationId > 0 && _donationId <= donationsCount);\r\n\r\n        Donation memory _donation = donations[_donationId];\r\n        DonationRequest memory _donationRequest = donationRequests[\r\n            _donation.donationRequestId\r\n        ];\r\n        address payable _receiverAddress = _donationRequest.receiverAddress;\r\n\r\n        // Ensure that the actor is the correct receiver\r\n        require(\r\n            msg.sender == _receiverAddress,\r\n            \"The user must be the receiver of the Donation Request.\"\r\n        );\r\n\r\n        // Pay the receiver. Funds come from the smart contract.\r\n        address(_donationRequest.receiverAddress).transfer(_donation.amount);\r\n\r\n        // Update the fields on the DonationRequest\r\n        _donationRequest.claimedDonations += _donation.amount;\r\n        _donationRequest.unclaimedDonations -= _donation.amount;\r\n        donationRequests[_donationRequest.id] = _donationRequest;\r\n\r\n        delete (donations[_donationId]);\r\n    }\r\n\r\n    function refundDonation(uint256 _donationId) public payable {\r\n        Donation memory _donation = donations[_donationId];\r\n                DonationRequest memory _donationRequest = donationRequests[\r\n            _donation.donationRequestId\r\n        ];\r\n\r\n        // Pay back the donator. Funds come from the smart contract.\r\n        address(_donation.donator).transfer(_donation.amount);\r\n        \r\n        // Update the fields on the DonationRequest\r\n        _donationRequest.unclaimedDonations -= _donation.amount;\r\n        donationRequests[_donationRequest.id] = _donationRequest;\r\n\r\n        delete (donations[_donationId]);\r\n    }\r\n}\r\n",
  "sourcePath": "C:/Users/rossb/Documents/Donator/Donator/src/contracts/Donator_v1.sol",
  "compiler": {
    "name": "solc",
    "version": "0.5.16+commit.9c3226ce.Emscripten.clang"
  },
  "schemaVersion": "3.4.1",
  "updatedAt": "2021-07-25T17:04:31.998Z",
  "networkType": "ethereum",
  "devdoc": {
    "methods": {}
  },
  "userdoc": {
    "methods": {}
  }
}