{
  "contractName": "Donator",
  "abi": [
    {
      "inputs": [],
      "payable": false,
      "stateMutability": "nonpayable",
      "type": "constructor"
    },
    {
      "payable": true,
      "stateMutability": "payable",
      "type": "fallback"
    },
    {
      "constant": true,
      "inputs": [],
      "name": "achievementsCount",
      "outputs": [
        {
          "internalType": "uint256",
          "name": "",
          "type": "uint256"
        }
      ],
      "payable": false,
      "stateMutability": "view",
      "type": "function"
    },
    {
      "constant": true,
      "inputs": [
        {
          "internalType": "uint256",
          "name": "",
          "type": "uint256"
        }
      ],
      "name": "donations",
      "outputs": [
        {
          "internalType": "uint256",
          "name": "id",
          "type": "uint256"
        },
        {
          "internalType": "string",
          "name": "description",
          "type": "string"
        },
        {
          "internalType": "uint256",
          "name": "amount",
          "type": "uint256"
        },
        {
          "internalType": "uint256",
          "name": "requestId",
          "type": "uint256"
        },
        {
          "internalType": "address payable",
          "name": "donator",
          "type": "address"
        },
        {
          "internalType": "bool",
          "name": "active",
          "type": "bool"
        }
      ],
      "payable": false,
      "stateMutability": "view",
      "type": "function"
    },
    {
      "constant": true,
      "inputs": [],
      "name": "donationsCount",
      "outputs": [
        {
          "internalType": "uint256",
          "name": "",
          "type": "uint256"
        }
      ],
      "payable": false,
      "stateMutability": "view",
      "type": "function"
    },
    {
      "constant": true,
      "inputs": [],
      "name": "maxEntries",
      "outputs": [
        {
          "internalType": "int256",
          "name": "",
          "type": "int256"
        }
      ],
      "payable": false,
      "stateMutability": "view",
      "type": "function"
    },
    {
      "constant": true,
      "inputs": [
        {
          "internalType": "uint256",
          "name": "",
          "type": "uint256"
        }
      ],
      "name": "requests",
      "outputs": [
        {
          "internalType": "uint256",
          "name": "id",
          "type": "uint256"
        },
        {
          "internalType": "string",
          "name": "hash",
          "type": "string"
        },
        {
          "internalType": "string",
          "name": "title",
          "type": "string"
        },
        {
          "internalType": "string",
          "name": "description",
          "type": "string"
        },
        {
          "internalType": "uint256",
          "name": "numDonations",
          "type": "uint256"
        },
        {
          "internalType": "uint256",
          "name": "totalDonationsAmount",
          "type": "uint256"
        },
        {
          "internalType": "uint256",
          "name": "outstandingDonations",
          "type": "uint256"
        },
        {
          "internalType": "uint256",
          "name": "acceptedDonations",
          "type": "uint256"
        },
        {
          "internalType": "address payable",
          "name": "requester",
          "type": "address"
        },
        {
          "internalType": "bool",
          "name": "active",
          "type": "bool"
        }
      ],
      "payable": false,
      "stateMutability": "view",
      "type": "function"
    },
    {
      "constant": true,
      "inputs": [],
      "name": "requestsCount",
      "outputs": [
        {
          "internalType": "uint256",
          "name": "",
          "type": "uint256"
        }
      ],
      "payable": false,
      "stateMutability": "view",
      "type": "function"
    },
    {
      "constant": false,
      "inputs": [
        {
          "internalType": "string",
          "name": "_hash",
          "type": "string"
        },
        {
          "internalType": "string",
          "name": "_title",
          "type": "string"
        },
        {
          "internalType": "string",
          "name": "_description",
          "type": "string"
        }
      ],
      "name": "uploadRequest",
      "outputs": [],
      "payable": false,
      "stateMutability": "nonpayable",
      "type": "function"
    },
    {
      "constant": false,
      "inputs": [
        {
          "internalType": "uint256",
          "name": "_requestId",
          "type": "uint256"
        },
        {
          "internalType": "string",
          "name": "_hash",
          "type": "string"
        },
        {
          "internalType": "string",
          "name": "_title",
          "type": "string"
        },
        {
          "internalType": "string",
          "name": "_description",
          "type": "string"
        }
      ],
      "name": "uploadAchievement",
      "outputs": [],
      "payable": true,
      "stateMutability": "payable",
      "type": "function"
    },
    {
      "constant": false,
      "inputs": [
        {
          "internalType": "uint256",
          "name": "_requestId",
          "type": "uint256"
        },
        {
          "internalType": "string",
          "name": "_description",
          "type": "string"
        }
      ],
      "name": "donate",
      "outputs": [],
      "payable": true,
      "stateMutability": "payable",
      "type": "function"
    },
    {
      "constant": false,
      "inputs": [
        {
          "internalType": "uint256",
          "name": "_donationId",
          "type": "uint256"
        }
      ],
      "name": "receiveDonation",
      "outputs": [],
      "payable": true,
      "stateMutability": "payable",
      "type": "function"
    },
    {
      "constant": false,
      "inputs": [
        {
          "internalType": "uint256",
          "name": "_donationId",
          "type": "uint256"
        }
      ],
      "name": "refundDonation",
      "outputs": [],
      "payable": true,
      "stateMutability": "payable",
      "type": "function"
    }
  ],
  "bytecode": "0x6080604052600080556000600255600060045534801561001e57600080fd5b5061282c8061002e6000396000f3fe60806040526004361061009c5760003560e01c8063d70c03bc11610064578063d70c03bc1461059c578063d83a0f97146105ca578063f23f3ba5146107c0578063f30dadee146107eb578063f8626af814610816578063fbfa4b7f1461091d5761009c565b80631f5225951461009e578063709cacc2146100c957806376d53c24146100f757806381d12c58146102ea5780638d59d1f1146104d7575b005b3480156100aa57600080fd5b506100b3610948565b6040518082815260200191505060405180910390f35b6100f5600480360360208110156100df57600080fd5b810190808035906020019092919050505061094e565b005b6102e86004803603608081101561010d57600080fd5b81019080803590602001909291908035906020019064010000000081111561013457600080fd5b82018360208201111561014657600080fd5b8035906020019184600183028401116401000000008311171561016857600080fd5b91908080601f016020809104026020016040519081016040528093929190818152602001838380828437600081840152601f19601f820116905080830192505050505050509192919290803590602001906401000000008111156101cb57600080fd5b8201836020820111156101dd57600080fd5b803590602001918460018302840111640100000000831117156101ff57600080fd5b91908080601f016020809104026020016040519081016040528093929190818152602001838380828437600081840152601f19601f8201169050808301925050505050505091929192908035906020019064010000000081111561026257600080fd5b82018360208201111561027457600080fd5b8035906020019184600183028401116401000000008311171561029657600080fd5b91908080601f016020809104026020016040519081016040528093929190818152602001838380828437600081840152601f19601f8201169050808301925050505050505091929192905050506110cf565b005b3480156102f657600080fd5b506103236004803603602081101561030d57600080fd5b810190808035906020019092919050505061134f565b604051808b81526020018060200180602001806020018a81526020018981526020018881526020018781526020018673ffffffffffffffffffffffffffffffffffffffff1673ffffffffffffffffffffffffffffffffffffffff1681526020018515151515815260200184810384528d818151815260200191508051906020019080838360005b838110156103c55780820151818401526020810190506103aa565b50505050905090810190601f1680156103f25780820380516001836020036101000a031916815260200191505b5084810383528c818151815260200191508051906020019080838360005b8381101561042b578082015181840152602081019050610410565b50505050905090810190601f1680156104585780820380516001836020036101000a031916815260200191505b5084810382528b818151815260200191508051906020019080838360005b83811015610491578082015181840152602081019050610476565b50505050905090810190601f1680156104be5780820380516001836020036101000a031916815260200191505b509d505050505050505050505050505060405180910390f35b61059a600480360360408110156104ed57600080fd5b81019080803590602001909291908035906020019064010000000081111561051457600080fd5b82018360208201111561052657600080fd5b8035906020019184600183028401116401000000008311171561054857600080fd5b91908080601f016020809104026020016040519081016040528093929190818152602001838380828437600081840152601f19601f820116905080830192505050505050509192919290505050611598565b005b6105c8600480360360208110156105b257600080fd5b8101908080359060200190929190505050611b7a565b005b3480156105d657600080fd5b506107be600480360360608110156105ed57600080fd5b810190808035906020019064010000000081111561060a57600080fd5b82018360208201111561061c57600080fd5b8035906020019184600183028401116401000000008311171561063e57600080fd5b91908080601f016020809104026020016040519081016040528093929190818152602001838380828437600081840152601f19601f820116905080830192505050505050509192919290803590602001906401000000008111156106a157600080fd5b8201836020820111156106b357600080fd5b803590602001918460018302840111640100000000831117156106d557600080fd5b91908080601f016020809104026020016040519081016040528093929190818152602001838380828437600081840152601f19601f8201169050808301925050505050505091929192908035906020019064010000000081111561073857600080fd5b82018360208201111561074a57600080fd5b8035906020019184600183028401116401000000008311171561076c57600080fd5b91908080601f016020809104026020016040519081016040528093929190818152602001838380828437600081840152601f19601f820116905080830192505050505050509192919290505050612306565b005b3480156107cc57600080fd5b506107d56124e0565b6040518082815260200191505060405180910390f35b3480156107f757600080fd5b506108006124e7565b6040518082815260200191505060405180910390f35b34801561082257600080fd5b5061084f6004803603602081101561083957600080fd5b81019080803590602001909291905050506124ed565b60405180878152602001806020018681526020018581526020018473ffffffffffffffffffffffffffffffffffffffff1673ffffffffffffffffffffffffffffffffffffffff16815260200183151515158152602001828103825287818151815260200191508051906020019080838360005b838110156108dd5780820151818401526020810190506108c2565b50505050905090810190601f16801561090a5780820380516001836020036101000a031916815260200191505b5097505050505050505060405180910390f35b34801561092957600080fd5b506109326125ee565b6040518082815260200191505060405180910390f35b60045481565b6005600082815260200190815260200160002060040160149054906101000a900460ff166109e4576040517f08c379a00000000000000000000000000000000000000000000000000000000081526004018080602001828103825260118152602001807f446f6e6174696f6e20496e61637469766500000000000000000000000000000081525060200191505060405180910390fd5b6109ec6125f4565b600560008381526020019081526020016000206040518060c001604052908160008201548152602001600182018054600181600116156101000203166002900480601f016020809104026020016040519081016040528092919081815260200182805460018160011615610100020316600290048015610aad5780601f10610a8257610100808354040283529160200191610aad565b820191906000526020600020905b815481529060010190602001808311610a9057829003601f168201915b5050505050815260200160028201548152602001600382015481526020016004820160009054906101000a900473ffffffffffffffffffffffffffffffffffffffff1673ffffffffffffffffffffffffffffffffffffffff1673ffffffffffffffffffffffffffffffffffffffff1681526020016004820160149054906101000a900460ff1615151515815250509050610b45612642565b60016000836060015181526020019081526020016000206040518061014001604052908160008201548152602001600182018054600181600116156101000203166002900480601f016020809104026020016040519081016040528092919081815260200182805460018160011615610100020316600290048015610c0b5780601f10610be057610100808354040283529160200191610c0b565b820191906000526020600020905b815481529060010190602001808311610bee57829003601f168201915b50505050508152602001600282018054600181600116156101000203166002900480601f016020809104026020016040519081016040528092919081815260200182805460018160011615610100020316600290048015610cad5780601f10610c8257610100808354040283529160200191610cad565b820191906000526020600020905b815481529060010190602001808311610c9057829003601f168201915b50505050508152602001600382018054600181600116156101000203166002900480601f016020809104026020016040519081016040528092919081815260200182805460018160011615610100020316600290048015610d4f5780601f10610d2457610100808354040283529160200191610d4f565b820191906000526020600020905b815481529060010190602001808311610d3257829003601f168201915b50505050508152602001600482015481526020016005820154815260200160068201548152602001600782015481526020016008820160009054906101000a900473ffffffffffffffffffffffffffffffffffffffff1673ffffffffffffffffffffffffffffffffffffffff1673ffffffffffffffffffffffffffffffffffffffff1681526020016008820160149054906101000a900460ff1615151515815250509050816080015173ffffffffffffffffffffffffffffffffffffffff163373ffffffffffffffffffffffffffffffffffffffff1614610e7b576040517f08c379a000000000000000000000000000000000000000000000000000000000815260040180806020018281038252602b815260200180612791602b913960400191505060405180910390fd5b816080015173ffffffffffffffffffffffffffffffffffffffff166108fc83604001519081150290604051600060405180830381858888f19350505050158015610ec9573d6000803e3d6000fd5b5081604001518160c00181815103915081815250506001816080018181510391508181525050806001600083600001518152602001908152602001600020600082015181600001556020820151816001019080519060200190610f2d9291906126ad565b506040820151816002019080519060200190610f4a9291906126ad565b506060820151816003019080519060200190610f679291906126ad565b506080820151816004015560a0820151816005015560c0820151816006015560e082015181600701556101008201518160080160006101000a81548173ffffffffffffffffffffffffffffffffffffffff021916908373ffffffffffffffffffffffffffffffffffffffff1602179055506101208201518160080160146101000a81548160ff02191690831515021790555090505060008260a001901515908115158152505081600560008460000151815260200190815260200160002060008201518160000155602082015181600101908051906020019061104b9291906126ad565b50604082015181600201556060820151816003015560808201518160040160006101000a81548173ffffffffffffffffffffffffffffffffffffffff021916908373ffffffffffffffffffffffffffffffffffffffff16021790555060a08201518160040160146101000a81548160ff021916908315150217905550905050505050565b60008411611145576040517f08c379a00000000000000000000000000000000000000000000000000000000081526004018080602001828103825260168152602001807f496e76616c6964205f616368696576656d656e7449640000000000000000000081525060200191505060405180910390fd5b3373ffffffffffffffffffffffffffffffffffffffff166001600086815260200190815260200160002060080160009054906101000a900473ffffffffffffffffffffffffffffffffffffffff1673ffffffffffffffffffffffffffffffffffffffff16146111ff576040517f08c379a000000000000000000000000000000000000000000000000000000000815260040180806020018281038252603c8152602001806127bc603c913960400191505060405180910390fd5b6002600081548092919060010191905055506040518060e0016040528060045481526020018481526020018381526020018281526020018581526020013373ffffffffffffffffffffffffffffffffffffffff1681526020016001151581525060036000600254815260200190815260200160002060008201518160000155602082015181600101908051906020019061129a9291906126ad565b5060408201518160020190805190602001906112b79291906126ad565b5060608201518160030190805190602001906112d49291906126ad565b506080820151816004015560a08201518160050160006101000a81548173ffffffffffffffffffffffffffffffffffffffff021916908373ffffffffffffffffffffffffffffffffffffffff16021790555060c08201518160050160146101000a81548160ff02191690831515021790555090505050505050565b6001602052806000526040600020600091509050806000015490806001018054600181600116156101000203166002900480601f0160208091040260200160405190810160405280929190818152602001828054600181600116156101000203166002900480156114015780601f106113d657610100808354040283529160200191611401565b820191906000526020600020905b8154815290600101906020018083116113e457829003601f168201915b505050505090806002018054600181600116156101000203166002900480601f01602080910402602001604051908101604052809291908181526020018280546001816001161561010002031660029004801561149f5780601f106114745761010080835404028352916020019161149f565b820191906000526020600020905b81548152906001019060200180831161148257829003601f168201915b505050505090806003018054600181600116156101000203166002900480601f01602080910402602001604051908101604052809291908181526020018280546001816001161561010002031660029004801561153d5780601f106115125761010080835404028352916020019161153d565b820191906000526020600020905b81548152906001019060200180831161152057829003601f168201915b5050505050908060040154908060050154908060060154908060070154908060080160009054906101000a900473ffffffffffffffffffffffffffffffffffffffff16908060080160149054906101000a900460ff1690508a565b6001600083815260200190815260200160002060080160149054906101000a900460ff1661162e576040517f08c379a00000000000000000000000000000000000000000000000000000000081526004018080602001828103825260118152602001807f526571756573747320496e61637469766500000000000000000000000000000081525060200191505060405180910390fd5b611636612642565b600160008481526020019081526020016000206040518061014001604052908160008201548152602001600182018054600181600116156101000203166002900480601f0160208091040260200160405190810160405280929190818152602001828054600181600116156101000203166002900480156116f85780601f106116cd576101008083540402835291602001916116f8565b820191906000526020600020905b8154815290600101906020018083116116db57829003601f168201915b50505050508152602001600282018054600181600116156101000203166002900480601f01602080910402602001604051908101604052809291908181526020018280546001816001161561010002031660029004801561179a5780601f1061176f5761010080835404028352916020019161179a565b820191906000526020600020905b81548152906001019060200180831161177d57829003601f168201915b50505050508152602001600382018054600181600116156101000203166002900480601f01602080910402602001604051908101604052809291908181526020018280546001816001161561010002031660029004801561183c5780601f106118115761010080835404028352916020019161183c565b820191906000526020600020905b81548152906001019060200180831161181f57829003601f168201915b50505050508152602001600482015481526020016005820154815260200160068201548152602001600782015481526020016008820160009054906101000a900473ffffffffffffffffffffffffffffffffffffffff1673ffffffffffffffffffffffffffffffffffffffff1673ffffffffffffffffffffffffffffffffffffffff1681526020016008820160149054906101000a900460ff16151515158152505090503073ffffffffffffffffffffffffffffffffffffffff166108fc349081150290604051600060405180830381858888f19350505050158015611926573d6000803e3d6000fd5b50348160c00181815101915081815250506001816080018181510191508181525050348160a001818151019150818152505080600160008581526020019081526020016000206000820151816000015560208201518160010190805190602001906119929291906126ad565b5060408201518160020190805190602001906119af9291906126ad565b5060608201518160030190805190602001906119cc9291906126ad565b506080820151816004015560a0820151816005015560c0820151816006015560e082015181600701556101008201518160080160006101000a81548173ffffffffffffffffffffffffffffffffffffffff021916908373ffffffffffffffffffffffffffffffffffffffff1602179055506101208201518160080160146101000a81548160ff0219169083151502179055509050506004600081548092919060010191905055506040518060c0016040528060045481526020018381526020013481526020018481526020013373ffffffffffffffffffffffffffffffffffffffff16815260200160011515815250600560006004548152602001908152602001600020600082015181600001556020820151816001019080519060200190611af69291906126ad565b50604082015181600201556060820151816003015560808201518160040160006101000a81548173ffffffffffffffffffffffffffffffffffffffff021916908373ffffffffffffffffffffffffffffffffffffffff16021790555060a08201518160040160146101000a81548160ff021916908315150217905550905050505050565b6005600082815260200190815260200160002060040160149054906101000a900460ff16611c10576040517f08c379a00000000000000000000000000000000000000000000000000000000081526004018080602001828103825260118152602001807f446f6e6174696f6e20496e61637469766500000000000000000000000000000081525060200191505060405180910390fd5b611c186125f4565b600560008381526020019081526020016000206040518060c001604052908160008201548152602001600182018054600181600116156101000203166002900480601f016020809104026020016040519081016040528092919081815260200182805460018160011615610100020316600290048015611cd95780601f10611cae57610100808354040283529160200191611cd9565b820191906000526020600020905b815481529060010190602001808311611cbc57829003601f168201915b5050505050815260200160028201548152602001600382015481526020016004820160009054906101000a900473ffffffffffffffffffffffffffffffffffffffff1673ffffffffffffffffffffffffffffffffffffffff1673ffffffffffffffffffffffffffffffffffffffff1681526020016004820160149054906101000a900460ff1615151515815250509050611d71612642565b60016000836060015181526020019081526020016000206040518061014001604052908160008201548152602001600182018054600181600116156101000203166002900480601f016020809104026020016040519081016040528092919081815260200182805460018160011615610100020316600290048015611e375780601f10611e0c57610100808354040283529160200191611e37565b820191906000526020600020905b815481529060010190602001808311611e1a57829003601f168201915b50505050508152602001600282018054600181600116156101000203166002900480601f016020809104026020016040519081016040528092919081815260200182805460018160011615610100020316600290048015611ed95780601f10611eae57610100808354040283529160200191611ed9565b820191906000526020600020905b815481529060010190602001808311611ebc57829003601f168201915b50505050508152602001600382018054600181600116156101000203166002900480601f016020809104026020016040519081016040528092919081815260200182805460018160011615610100020316600290048015611f7b5780601f10611f5057610100808354040283529160200191611f7b565b820191906000526020600020905b815481529060010190602001808311611f5e57829003601f168201915b50505050508152602001600482015481526020016005820154815260200160068201548152602001600782015481526020016008820160009054906101000a900473ffffffffffffffffffffffffffffffffffffffff1673ffffffffffffffffffffffffffffffffffffffff1673ffffffffffffffffffffffffffffffffffffffff1681526020016008820160149054906101000a900460ff1615151515815250509050600081610100015190508073ffffffffffffffffffffffffffffffffffffffff163373ffffffffffffffffffffffffffffffffffffffff16146120ad576040517f08c379a000000000000000000000000000000000000000000000000000000000815260040180806020018281038252603e815260200180612753603e913960400191505060405180910390fd5b81610100015173ffffffffffffffffffffffffffffffffffffffff166108fc84604001519081150290604051600060405180830381858888f193505050501580156120fc573d6000803e3d6000fd5b5082604001518260e001818151019150818152505082604001518260c00181815103915081815250508160016000846000015181526020019081526020016000206000820151816000015560208201518160010190805190602001906121639291906126ad565b5060408201518160020190805190602001906121809291906126ad565b50606082015181600301908051906020019061219d9291906126ad565b506080820151816004015560a0820151816005015560c0820151816006015560e082015181600701556101008201518160080160006101000a81548173ffffffffffffffffffffffffffffffffffffffff021916908373ffffffffffffffffffffffffffffffffffffffff1602179055506101208201518160080160146101000a81548160ff02191690831515021790555090505060008360a00190151590811515815250508260056000856000015181526020019081526020016000206000820151816000015560208201518160010190805190602001906122819291906126ad565b50604082015181600201556060820151816003015560808201518160040160006101000a81548173ffffffffffffffffffffffffffffffffffffffff021916908373ffffffffffffffffffffffffffffffffffffffff16021790555060a08201518160040160146101000a81548160ff02191690831515021790555090505050505050565b600083511161231457600080fd5b600081511161232257600080fd5b600073ffffffffffffffffffffffffffffffffffffffff163373ffffffffffffffffffffffffffffffffffffffff16141561235c57600080fd5b60008081548092919060010191905055506040518061014001604052806000548152602001848152602001838152602001828152602001600081526020016000815260200160008152602001600081526020013373ffffffffffffffffffffffffffffffffffffffff16815260200160011515815250600160008054815260200190815260200160002060008201518160000155602082015181600101908051906020019061240c9291906126ad565b5060408201518160020190805190602001906124299291906126ad565b5060608201518160030190805190602001906124469291906126ad565b506080820151816004015560a0820151816005015560c0820151816006015560e082015181600701556101008201518160080160006101000a81548173ffffffffffffffffffffffffffffffffffffffff021916908373ffffffffffffffffffffffffffffffffffffffff1602179055506101208201518160080160146101000a81548160ff021916908315150217905550905050505050565b620186a081565b60025481565b6005602052806000526040600020600091509050806000015490806001018054600181600116156101000203166002900480601f01602080910402602001604051908101604052809291908181526020018280546001816001161561010002031660029004801561259f5780601f106125745761010080835404028352916020019161259f565b820191906000526020600020905b81548152906001019060200180831161258257829003601f168201915b5050505050908060020154908060030154908060040160009054906101000a900473ffffffffffffffffffffffffffffffffffffffff16908060040160149054906101000a900460ff16905086565b60005481565b6040518060c0016040528060008152602001606081526020016000815260200160008152602001600073ffffffffffffffffffffffffffffffffffffffff1681526020016000151581525090565b6040518061014001604052806000815260200160608152602001606081526020016060815260200160008152602001600081526020016000815260200160008152602001600073ffffffffffffffffffffffffffffffffffffffff1681526020016000151581525090565b828054600181600116156101000203166002900490600052602060002090601f016020900481019282601f106126ee57805160ff191683800117855561271c565b8280016001018555821561271c579182015b8281111561271b578251825591602001919060010190612700565b5b509050612729919061272d565b5090565b61274f91905b8082111561274b576000816000905550600101612733565b5090565b9056fe4f6e6c792074686520726571756573746572206d617920726563656976652074686520446f6e6174696f6e73206f6620746865697220526571756573742e4f6e6c792074686520646f6e61746f72206d617920726566756e6420746865697220446f6e6174696f6e2e4f6e6c792074686520726571756573746572206d61792075706c6f616420416368696576656d656e747320746f20746865697220526571756573742ea265627a7a72315820644bc5cd916e98866efe72e33c090c16635040131d4bc152c6ac0a77666f46f364736f6c63430005100032",
  "source": "pragma solidity ^0.5.16;\r\n\r\ncontract Donator {\r\n    //address private tokenAddress;\r\n    int constant public maxEntries = 100000;\r\n\r\n    uint256 public requestsCount = 0;\r\n    mapping(uint256 => Request) public requests;\r\n\r\n    uint256 public achievementsCount = 0;\r\n    mapping(uint256 => Achievement) achievements;\r\n\r\n    uint256 public donationsCount = 0;\r\n    mapping(uint256 => Donation) public donations;\r\n\r\n    struct Request {\r\n        uint256 id;\r\n        string hash;\r\n        string title;\r\n        string description;\r\n        uint256 numDonations;\r\n        uint256 totalDonationsAmount;\r\n        uint256 outstandingDonations;\r\n        uint256 acceptedDonations;\r\n        address payable requester;\r\n        bool active;\r\n    }\r\n\r\n    struct Achievement {\r\n        uint256 id;\r\n        string hash;\r\n        string title;\r\n        string description;\r\n        uint256 requestId;\r\n        address payable requester;\r\n        bool active;\r\n    }\r\n\r\n    struct Donation {\r\n        uint256 id;\r\n        string description;\r\n        uint256 amount;\r\n        uint256 requestId;\r\n        address payable donator;\r\n        bool active;\r\n    }\r\n\r\n    constructor() public {\r\n        //tokenAddress = _tokenAddress;\r\n        //owner = msg.sender\r\n    }\r\n    \r\n    function() external payable {}\r\n\r\n    function uploadRequest(\r\n        string memory _hash,\r\n        string memory _title,\r\n        string memory _description\r\n    ) public {\r\n        require(bytes(_hash).length > 0);\r\n        require(bytes(_description).length > 0);\r\n        require(msg.sender != address(0));\r\n\r\n        requestsCount++;\r\n\r\n        // Set a spot in the mapping to a new Request\r\n        requests[requestsCount] = Request(\r\n            requestsCount,\r\n            _hash,\r\n            _title,\r\n            _description,\r\n            0,\r\n            0,\r\n            0,\r\n            0,\r\n            msg.sender,\r\n            true\r\n        );\r\n    }\r\n\r\n    function uploadAchievement(\r\n        uint256 _requestId,\r\n        string memory _hash,\r\n        string memory _title,\r\n        string memory _description\r\n    ) public payable {\r\n        require(\r\n            _requestId > 0, \"Invalid _achievementId\"\r\n        );\r\n\r\n        require(\r\n            requests[_requestId].requester == msg.sender,\r\n            \"Only the requester may upload Achievements to their Request.\"\r\n        );\r\n\r\n        achievementsCount++;\r\n\r\n        // Set a spot in the mapping to a new Achievement\r\n        achievements[achievementsCount] = Achievement(\r\n            donationsCount,\r\n            _hash,\r\n            _title,\r\n            _description,\r\n            _requestId,\r\n            msg.sender,\r\n            true\r\n        );\r\n    }\r\n\r\n    function donate(uint256 _requestId, string memory _description)\r\n        public\r\n        payable\r\n    {\r\n        require(\r\n            requests[_requestId].active, \"Requests Inactive\"\r\n        );\r\n\r\n        Request memory _request = requests[_requestId];\r\n\r\n        // Pay the smart contract. Funds come from a donator.\r\n        address(this).transfer(msg.value);\r\n\r\n        // Update the field on the Request\r\n        _request.outstandingDonations += msg.value;\r\n        _request.numDonations += 1;\r\n        _request.totalDonationsAmount += msg.value;\r\n        requests[_requestId] = _request;\r\n\r\n        donationsCount++;\r\n\r\n        // Set a spot in the mapping to a new Donation\r\n        donations[donationsCount] = Donation(\r\n            donationsCount,\r\n            _description,\r\n            msg.value,\r\n            _requestId,\r\n            msg.sender,\r\n            true\r\n        );\r\n    }\r\n\r\n    function receiveDonation(uint256 _donationId) public payable {\r\n        require(\r\n            donations[_donationId].active, \"Donation Inactive\"\r\n        );\r\n\r\n        Donation memory _donation = donations[_donationId];\r\n        Request memory _request = requests[_donation.requestId];\r\n        address payable _requester = _request.requester;\r\n\r\n        // Ensure that the actor is the correct requester\r\n        require(\r\n            msg.sender == _requester,\r\n            \"Only the requester may receive the Donations of their Request.\"\r\n        );\r\n\r\n        // Pay the requester. Funds come from the smart contract.\r\n        _request.requester.transfer(_donation.amount);\r\n\r\n        // Update the fields on the Request\r\n        _request.acceptedDonations += _donation.amount;\r\n        _request.outstandingDonations -= _donation.amount;\r\n        requests[_request.id] = _request;\r\n\r\n        // Make the Donation inactive\r\n        _donation.active = false;\r\n        donations[_donation.id] = _donation;\r\n    }\r\n    \r\n    function refundDonation(uint256 _donationId) public payable {\r\n        require(\r\n            donations[_donationId].active, \"Donation Inactive\"\r\n        );\r\n        \r\n        Donation memory _donation = donations[_donationId];\r\n                Request memory _request = requests[\r\n            _donation.requestId\r\n        ];\r\n        \r\n        // Ensure that the actor is the correct donator\r\n        require(\r\n            msg.sender == _donation.donator,\r\n            \"Only the donator may refund their Donation.\"\r\n        );\r\n        \r\n        // Pay back the donator. Funds come from the smart contract.\r\n        _donation.donator.transfer(_donation.amount);\r\n        \r\n        // Update the fields on the Request\r\n        _request.outstandingDonations -= _donation.amount;\r\n        _request.numDonations -= 1;\r\n        requests[_request.id] = _request;\r\n        \r\n        // Make the Donation inactive\r\n        _donation.active = false;\r\n        donations[_donation.id] = _donation;\r\n    }\r\n\r\n    function deleteRequest(uint256 _requestId) private {\r\n        // Make the Request inactive\r\n        requests[_requestId].active = false;\r\n    }\r\n}\r\n",
  "sourcePath": "C:/Users/rossb/Documents/Donator/src/contracts/Donator_v1.sol",
  "compiler": {
    "name": "solc",
    "version": "0.5.16+commit.9c3226ce.Emscripten.clang"
  },
  "schemaVersion": "3.4.1",
  "updatedAt": "2021-09-21T21:36:36.410Z",
  "networkType": "ethereum",
  "devdoc": {
    "methods": {}
  },
  "userdoc": {
    "methods": {}
  }
}